{
  "_format": "hh-sol-artifact-1",
  "contractName": "NQGVoting",
  "sourceName": "contracts/NQGVoting.sol",
  "abi": [
    {
      "inputs": [
        {
          "internalType": "address",
          "name": "_relayer",
          "type": "address"
        }
      ],
      "stateMutability": "nonpayable",
      "type": "constructor"
    },
    {
      "anonymous": false,
      "inputs": [
        {
          "indexed": true,
          "internalType": "uint256",
          "name": "proposalId",
          "type": "uint256"
        },
        {
          "indexed": false,
          "internalType": "string",
          "name": "question",
          "type": "string"
        },
        {
          "indexed": false,
          "internalType": "uint256",
          "name": "startTime",
          "type": "uint256"
        },
        {
          "indexed": false,
          "internalType": "uint256",
          "name": "endTime",
          "type": "uint256"
        }
      ],
      "name": "ProposalCreated",
      "type": "event"
    },
    {
      "anonymous": false,
      "inputs": [
        {
          "indexed": true,
          "internalType": "uint256",
          "name": "proposalId",
          "type": "uint256"
        },
        {
          "indexed": false,
          "internalType": "uint256",
          "name": "optionIndex",
          "type": "uint256"
        },
        {
          "indexed": false,
          "internalType": "uint256",
          "name": "weight",
          "type": "uint256"
        }
      ],
      "name": "VoteCast",
      "type": "event"
    },
    {
      "anonymous": false,
      "inputs": [
        {
          "indexed": true,
          "internalType": "address",
          "name": "voter",
          "type": "address"
        },
        {
          "indexed": false,
          "internalType": "uint256",
          "name": "votePower",
          "type": "uint256"
        }
      ],
      "name": "VotePowerSet",
      "type": "event"
    },
    {
      "anonymous": false,
      "inputs": [
        {
          "indexed": true,
          "internalType": "address",
          "name": "voter",
          "type": "address"
        }
      ],
      "name": "VoterApproved",
      "type": "event"
    },
    {
      "anonymous": false,
      "inputs": [
        {
          "indexed": true,
          "internalType": "address",
          "name": "voter",
          "type": "address"
        }
      ],
      "name": "VoterRegistered",
      "type": "event"
    },
    {
      "inputs": [],
      "name": "admin",
      "outputs": [
        {
          "internalType": "address",
          "name": "",
          "type": "address"
        }
      ],
      "stateMutability": "view",
      "type": "function"
    },
    {
      "inputs": [
        {
          "internalType": "address",
          "name": "_voter",
          "type": "address"
        }
      ],
      "name": "approveVoter",
      "outputs": [],
      "stateMutability": "nonpayable",
      "type": "function"
    },
    {
      "inputs": [
        {
          "internalType": "string",
          "name": "_question",
          "type": "string"
        },
        {
          "internalType": "string[]",
          "name": "_options",
          "type": "string[]"
        },
        {
          "internalType": "uint256",
          "name": "_startTime",
          "type": "uint256"
        },
        {
          "internalType": "uint256",
          "name": "_endTime",
          "type": "uint256"
        }
      ],
      "name": "createProposal",
      "outputs": [
        {
          "internalType": "uint256",
          "name": "",
          "type": "uint256"
        }
      ],
      "stateMutability": "nonpayable",
      "type": "function"
    },
    {
      "inputs": [
        {
          "internalType": "uint256",
          "name": "_proposalId",
          "type": "uint256"
        }
      ],
      "name": "getProposalInfo",
      "outputs": [
        {
          "internalType": "string",
          "name": "question",
          "type": "string"
        },
        {
          "internalType": "uint256",
          "name": "startTime",
          "type": "uint256"
        },
        {
          "internalType": "uint256",
          "name": "endTime",
          "type": "uint256"
        },
        {
          "internalType": "uint256",
          "name": "optionCount",
          "type": "uint256"
        },
        {
          "internalType": "uint256",
          "name": "totalWeight",
          "type": "uint256"
        },
        {
          "internalType": "bool",
          "name": "votingOpen",
          "type": "bool"
        }
      ],
      "stateMutability": "view",
      "type": "function"
    },
    {
      "inputs": [
        {
          "internalType": "uint256",
          "name": "_proposalId",
          "type": "uint256"
        }
      ],
      "name": "getProposalOptions",
      "outputs": [
        {
          "internalType": "string[]",
          "name": "",
          "type": "string[]"
        }
      ],
      "stateMutability": "view",
      "type": "function"
    },
    {
      "inputs": [
        {
          "internalType": "uint256",
          "name": "_proposalId",
          "type": "uint256"
        }
      ],
      "name": "getResults",
      "outputs": [
        {
          "internalType": "uint256[]",
          "name": "",
          "type": "uint256[]"
        }
      ],
      "stateMutability": "view",
      "type": "function"
    },
    {
      "inputs": [
        {
          "internalType": "address",
          "name": "_voter",
          "type": "address"
        }
      ],
      "name": "getVotePower",
      "outputs": [
        {
          "internalType": "uint256",
          "name": "",
          "type": "uint256"
        }
      ],
      "stateMutability": "view",
      "type": "function"
    },
    {
      "inputs": [
        {
          "internalType": "address",
          "name": "_voter",
          "type": "address"
        }
      ],
      "name": "getVoterInfo",
      "outputs": [
        {
          "internalType": "bool",
          "name": "registered",
          "type": "bool"
        },
        {
          "internalType": "bool",
          "name": "approved",
          "type": "bool"
        },
        {
          "internalType": "uint256",
          "name": "votePower",
          "type": "uint256"
        }
      ],
      "stateMutability": "view",
      "type": "function"
    },
    {
      "inputs": [],
      "name": "proposalCount",
      "outputs": [
        {
          "internalType": "uint256",
          "name": "",
          "type": "uint256"
        }
      ],
      "stateMutability": "view",
      "type": "function"
    },
    {
      "inputs": [
        {
          "internalType": "uint256",
          "name": "",
          "type": "uint256"
        }
      ],
      "name": "proposals",
      "outputs": [
        {
          "internalType": "string",
          "name": "question",
          "type": "string"
        },
        {
          "internalType": "uint256",
          "name": "startTime",
          "type": "uint256"
        },
        {
          "internalType": "uint256",
          "name": "endTime",
          "type": "uint256"
        },
        {
          "internalType": "bool",
          "name": "exists",
          "type": "bool"
        }
      ],
      "stateMutability": "view",
      "type": "function"
    },
    {
      "inputs": [
        {
          "internalType": "address",
          "name": "_voter",
          "type": "address"
        }
      ],
      "name": "registerVoter",
      "outputs": [],
      "stateMutability": "nonpayable",
      "type": "function"
    },
    {
      "inputs": [],
      "name": "relayer",
      "outputs": [
        {
          "internalType": "address",
          "name": "",
          "type": "address"
        }
      ],
      "stateMutability": "view",
      "type": "function"
    },
    {
      "inputs": [
        {
          "internalType": "uint256",
          "name": "_proposalId",
          "type": "uint256"
        },
        {
          "internalType": "uint256",
          "name": "_startTime",
          "type": "uint256"
        },
        {
          "internalType": "uint256",
          "name": "_endTime",
          "type": "uint256"
        }
      ],
      "name": "setProposalWindow",
      "outputs": [],
      "stateMutability": "nonpayable",
      "type": "function"
    },
    {
      "inputs": [
        {
          "internalType": "address",
          "name": "_relayer",
          "type": "address"
        }
      ],
      "name": "setRelayer",
      "outputs": [],
      "stateMutability": "nonpayable",
      "type": "function"
    },
    {
      "inputs": [
        {
          "internalType": "address",
          "name": "_voter",
          "type": "address"
        },
        {
          "internalType": "uint256",
          "name": "_power",
          "type": "uint256"
        }
      ],
      "name": "setVotePower",
      "outputs": [],
      "stateMutability": "nonpayable",
      "type": "function"
    },
    {
      "inputs": [
        {
          "internalType": "uint256",
          "name": "",
          "type": "uint256"
        }
      ],
      "name": "totalVoteWeight",
      "outputs": [
        {
          "internalType": "uint256",
          "name": "",
          "type": "uint256"
        }
      ],
      "stateMutability": "view",
      "type": "function"
    },
    {
      "inputs": [
        {
          "internalType": "uint256",
          "name": "_proposalId",
          "type": "uint256"
        },
        {
          "internalType": "address",
          "name": "_voter",
          "type": "address"
        },
        {
          "internalType": "uint256",
          "name": "_optionIndex",
          "type": "uint256"
        }
      ],
      "name": "vote",
      "outputs": [],
      "stateMutability": "nonpayable",
      "type": "function"
    },
    {
      "inputs": [
        {
          "internalType": "uint256",
          "name": "",
          "type": "uint256"
        },
        {
          "internalType": "address",
          "name": "",
          "type": "address"
        }
      ],
      "name": "voteRecords",
      "outputs": [
        {
          "internalType": "bool",
          "name": "hasVoted",
          "type": "bool"
        },
        {
          "internalType": "uint256",
          "name": "optionIndex",
          "type": "uint256"
        },
        {
          "internalType": "uint256",
          "name": "weight",
          "type": "uint256"
        }
      ],
      "stateMutability": "view",
      "type": "function"
    },
    {
      "inputs": [
        {
          "internalType": "uint256",
          "name": "",
          "type": "uint256"
        },
        {
          "internalType": "uint256",
          "name": "",
          "type": "uint256"
        }
      ],
      "name": "voteTallies",
      "outputs": [
        {
          "internalType": "uint256",
          "name": "",
          "type": "uint256"
        }
      ],
      "stateMutability": "view",
      "type": "function"
    },
    {
      "inputs": [
        {
          "internalType": "address",
          "name": "",
          "type": "address"
        }
      ],
      "name": "voters",
      "outputs": [
        {
          "internalType": "bool",
          "name": "registered",
          "type": "bool"
        },
        {
          "internalType": "bool",
          "name": "approved",
          "type": "bool"
        },
        {
          "internalType": "uint256",
          "name": "votePower",
          "type": "uint256"
        }
      ],
      "stateMutability": "view",
      "type": "function"
    }
  ],
  "bytecode": "0x60a06040523480156200001157600080fd5b50604051620030fc380380620030fc83398181016040528101906200003791906200011c565b3373ffffffffffffffffffffffffffffffffffffffff1660808173ffffffffffffffffffffffffffffffffffffffff1681525050806000806101000a81548173ffffffffffffffffffffffffffffffffffffffff021916908373ffffffffffffffffffffffffffffffffffffffff160217905550506200014e565b600080fd5b600073ffffffffffffffffffffffffffffffffffffffff82169050919050565b6000620000e482620000b7565b9050919050565b620000f681620000d7565b81146200010257600080fd5b50565b6000815190506200011681620000eb565b92915050565b600060208284031215620001355762000134620000b2565b5b6000620001458482850162000105565b91505092915050565b608051612f616200019b60003960008181610518015281816107e0015281816109f501528181610f290152818161114a01528181611703015281816118730152611a6b0152612f616000f3fe608060405234801561001057600080fd5b506004361061012c5760003560e01c80639ed1f255116100ad578063c1ebf69311610071578063c1ebf69314610399578063c9b84e89146103b5578063da35c664146103e5578063e04ec9e714610403578063f851a440146104335761012c565b80639ed1f255146102a0578063a1bd71b9146102d2578063a3ec138d14610302578063bb9c092014610334578063bc903cb8146103645761012c565b806355e180df116100f457806355e180df146101e85780636548e9bc1461021a57806381a60c0d146102365780638406c079146102665780638a775820146102845761012c565b8063013cf08b14610131578063119d4ddb146101645780632cd31c541461018057806338db6dd3146101b05780634de8737c146101cc575b600080fd5b61014b60048036038101906101469190611bb1565b610451565b60405161015b9493929190611c98565b60405180910390f35b61017e60048036038101906101799190611d42565b610516565b005b61019a60048036038101906101959190611d6f565b610764565b6040516101a79190611daf565b60405180910390f35b6101ca60048036038101906101c59190611d42565b610789565b005b6101e660048036038101906101e19190611dca565b61099e565b005b61020260048036038101906101fd9190611e1d565b610ee3565b60405161021193929190611e5d565b60405180910390f35b610234600480360381019061022f9190611d42565b610f27565b005b610250600480360381019061024b9190611bb1565b610ff8565b60405161025d9190611f52565b60405180910390f35b61026e611124565b60405161027b9190611f83565b60405180910390f35b61029e60048036038101906102999190611f9e565b611148565b005b6102ba60048036038101906102b59190611d42565b6112fe565b6040516102c993929190611fde565b60405180910390f35b6102ec60048036038101906102e79190611bb1565b611380565b6040516102f99190612121565b60405180910390f35b61031c60048036038101906103179190611d42565b6114d2565b60405161032b93929190611fde565b60405180910390f35b61034e60048036038101906103499190611d42565b611516565b60405161035b9190611daf565b60405180910390f35b61037e60048036038101906103799190611bb1565b6115a4565b60405161039096959493929190612143565b60405180910390f35b6103b360048036038101906103ae91906121ab565b611701565b005b6103cf60048036038101906103ca9190611bb1565b611851565b6040516103dc9190611daf565b60405180910390f35b6103ed611869565b6040516103fa9190611daf565b60405180910390f35b61041d60048036038101906104189190612419565b61186f565b60405161042a9190611daf565b60405180910390f35b61043b611a69565b6040516104489190611f83565b60405180910390f35b6002602052806000526040600020600091509050806000018054610474906124e7565b80601f01602080910402602001604051908101604052809291908181526020018280546104a0906124e7565b80156104ed5780601f106104c2576101008083540402835291602001916104ed565b820191906000526020600020905b8154815290600101906020018083116104d057829003601f168201915b5050505050908060020154908060030154908060040160009054906101000a900460ff16905084565b7f000000000000000000000000000000000000000000000000000000000000000073ffffffffffffffffffffffffffffffffffffffff163373ffffffffffffffffffffffffffffffffffffffff16146105a4576040517f08c379a000000000000000000000000000000000000000000000000000000000815260040161059b90612564565b60405180910390fd5b600560008273ffffffffffffffffffffffffffffffffffffffff1673ffffffffffffffffffffffffffffffffffffffff16815260200190815260200160002060000160009054906101000a900460ff16610633576040517f08c379a000000000000000000000000000000000000000000000000000000000815260040161062a906125d0565b60405180910390fd5b600560008273ffffffffffffffffffffffffffffffffffffffff1673ffffffffffffffffffffffffffffffffffffffff16815260200190815260200160002060000160019054906101000a900460ff16156106c3576040517f08c379a00000000000000000000000000000000000000000000000000000000081526004016106ba9061263c565b60405180910390fd5b6001600560008373ffffffffffffffffffffffffffffffffffffffff1673ffffffffffffffffffffffffffffffffffffffff16815260200190815260200160002060000160016101000a81548160ff0219169083151502179055508073ffffffffffffffffffffffffffffffffffffffff167f85e209912e11195144f49695f608785c8a31876f9d5d831813c396126a21b48460405160405180910390a250565b6003602052816000526040600020602052806000526040600020600091509150505481565b60008054906101000a900473ffffffffffffffffffffffffffffffffffffffff1673ffffffffffffffffffffffffffffffffffffffff163373ffffffffffffffffffffffffffffffffffffffff16148061082e57507f000000000000000000000000000000000000000000000000000000000000000073ffffffffffffffffffffffffffffffffffffffff163373ffffffffffffffffffffffffffffffffffffffff16145b61086d576040517f08c379a0000000000000000000000000000000000000000000000000000000008152600401610864906126a8565b60405180910390fd5b600560008273ffffffffffffffffffffffffffffffffffffffff1673ffffffffffffffffffffffffffffffffffffffff16815260200190815260200160002060000160009054906101000a900460ff16156108fd576040517f08c379a00000000000000000000000000000000000000000000000000000000081526004016108f490612714565b60405180910390fd5b6001600560008373ffffffffffffffffffffffffffffffffffffffff1673ffffffffffffffffffffffffffffffffffffffff16815260200190815260200160002060000160006101000a81548160ff0219169083151502179055508073ffffffffffffffffffffffffffffffffffffffff167fb6be2187d059cc2a55fe29e0e503b566e1e0f8c8780096e185429350acffd3dd60405160405180910390a250565b60008054906101000a900473ffffffffffffffffffffffffffffffffffffffff1673ffffffffffffffffffffffffffffffffffffffff163373ffffffffffffffffffffffffffffffffffffffff161480610a4357507f000000000000000000000000000000000000000000000000000000000000000073ffffffffffffffffffffffffffffffffffffffff163373ffffffffffffffffffffffffffffffffffffffff16145b610a82576040517f08c379a0000000000000000000000000000000000000000000000000000000008152600401610a79906126a8565b60405180910390fd5b60006002600085815260200190815260200160002090508060040160009054906101000a900460ff16610aea576040517f08c379a0000000000000000000000000000000000000000000000000000000008152600401610ae190612780565b60405180910390fd5b8060020154421015610b31576040517f08c379a0000000000000000000000000000000000000000000000000000000008152600401610b28906127ec565b60405180910390fd5b80600301544210610b77576040517f08c379a0000000000000000000000000000000000000000000000000000000008152600401610b6e90612858565b60405180910390fd5b6004600085815260200190815260200160002060008473ffffffffffffffffffffffffffffffffffffffff1673ffffffffffffffffffffffffffffffffffffffff16815260200190815260200160002060000160009054906101000a900460ff1615610c18576040517f08c379a0000000000000000000000000000000000000000000000000000000008152600401610c0f906128c4565b60405180910390fd5b600560008473ffffffffffffffffffffffffffffffffffffffff1673ffffffffffffffffffffffffffffffffffffffff16815260200190815260200160002060000160009054906101000a900460ff168015610cc05750600560008473ffffffffffffffffffffffffffffffffffffffff1673ffffffffffffffffffffffffffffffffffffffff16815260200190815260200160002060000160019054906101000a900460ff165b610cff576040517f08c379a0000000000000000000000000000000000000000000000000000000008152600401610cf690612930565b60405180910390fd5b80600101805490508210610d48576040517f08c379a0000000000000000000000000000000000000000000000000000000008152600401610d3f9061299c565b60405180910390fd5b6000610d5384611516565b905060008111610d98576040517f08c379a0000000000000000000000000000000000000000000000000000000008152600401610d8f90612a08565b60405180910390fd5b6040518060600160405280600115158152602001848152602001828152506004600087815260200190815260200160002060008673ffffffffffffffffffffffffffffffffffffffff1673ffffffffffffffffffffffffffffffffffffffff16815260200190815260200160002060008201518160000160006101000a81548160ff0219169083151502179055506020820151816001015560408201518160020155905050806003600087815260200190815260200160002060008581526020019081526020016000206000828254610e719190612a57565b9250508190555080600660008781526020019081526020016000206000828254610e9b9190612a57565b92505081905550847f24930ecca7f60d4736cd965cb5522694ea4b32308405d3f88fea2f59eff63caa8483604051610ed4929190612a8b565b60405180910390a25050505050565b6004602052816000526040600020602052806000526040600020600091509150508060000160009054906101000a900460ff16908060010154908060020154905083565b7f000000000000000000000000000000000000000000000000000000000000000073ffffffffffffffffffffffffffffffffffffffff163373ffffffffffffffffffffffffffffffffffffffff1614610fb5576040517f08c379a0000000000000000000000000000000000000000000000000000000008152600401610fac90612564565b60405180910390fd5b806000806101000a81548173ffffffffffffffffffffffffffffffffffffffff021916908373ffffffffffffffffffffffffffffffffffffffff16021790555050565b606060006002600084815260200190815260200160002090508060040160009054906101000a900460ff16611062576040517f08c379a000000000000000000000000000000000000000000000000000000000815260040161105990612780565b60405180910390fd5b6000816001018054905067ffffffffffffffff81111561108557611084612208565b5b6040519080825280602002602001820160405280156110b35781602001602082028036833780820191505090505b50905060005b82600101805490508110156111195760036000868152602001908152602001600020600082815260200190815260200160002054828281518110611100576110ff612ab4565b5b60200260200101818152505080806001019150506110b9565b508092505050919050565b60008054906101000a900473ffffffffffffffffffffffffffffffffffffffff1681565b7f000000000000000000000000000000000000000000000000000000000000000073ffffffffffffffffffffffffffffffffffffffff163373ffffffffffffffffffffffffffffffffffffffff16146111d6576040517f08c379a00000000000000000000000000000000000000000000000000000000081526004016111cd90612564565b60405180910390fd5b600560008373ffffffffffffffffffffffffffffffffffffffff1673ffffffffffffffffffffffffffffffffffffffff16815260200190815260200160002060000160009054906101000a900460ff16611265576040517f08c379a000000000000000000000000000000000000000000000000000000000815260040161125c906125d0565b60405180910390fd5b80600560008473ffffffffffffffffffffffffffffffffffffffff1673ffffffffffffffffffffffffffffffffffffffff168152602001908152602001600020600101819055508173ffffffffffffffffffffffffffffffffffffffff167f420c666f23b87fcd3efa4a15310a7f4d5ec7e0ff103cfc1836dc85eba7eb0a6f826040516112f29190611daf565b60405180910390a25050565b600080600080600560008673ffffffffffffffffffffffffffffffffffffffff1673ffffffffffffffffffffffffffffffffffffffff16815260200190815260200160002090508060000160009054906101000a900460ff168160000160019054906101000a900460ff1661137287611516565b935093509350509193909250565b60606002600083815260200190815260200160002060040160009054906101000a900460ff166113e5576040517f08c379a00000000000000000000000000000000000000000000000000000000081526004016113dc90612b2f565b60405180910390fd5b60026000838152602001908152602001600020600101805480602002602001604051908101604052809291908181526020016000905b828210156114c757838290600052602060002001805461143a906124e7565b80601f0160208091040260200160405190810160405280929190818152602001828054611466906124e7565b80156114b35780601f10611488576101008083540402835291602001916114b3565b820191906000526020600020905b81548152906001019060200180831161149657829003601f168201915b50505050508152602001906001019061141b565b505050509050919050565b60056020528060005260406000206000915090508060000160009054906101000a900460ff16908060000160019054906101000a900460ff16908060010154905083565b600080600560008473ffffffffffffffffffffffffffffffffffffffff1673ffffffffffffffffffffffffffffffffffffffff16815260200190815260200160002090508060000160009054906101000a900460ff16158061158757508060000160019054906101000a900460ff16155b1561159657600091505061159f565b80600101549150505b919050565b60606000806000806000806002600089815260200190815260200160002090508060040160009054906101000a900460ff16611615576040517f08c379a000000000000000000000000000000000000000000000000000000000815260040161160c90612b2f565b60405180910390fd5b6000429050816002015481101580156116315750816003015481105b925081600001826002015483600301548460010180549050600660008e8152602001908152602001600020548785805461166a906124e7565b80601f0160208091040260200160405190810160405280929190818152602001828054611696906124e7565b80156116e35780601f106116b8576101008083540402835291602001916116e3565b820191906000526020600020905b8154815290600101906020018083116116c657829003601f168201915b50505050509550975097509750975097509750505091939550919395565b7f000000000000000000000000000000000000000000000000000000000000000073ffffffffffffffffffffffffffffffffffffffff163373ffffffffffffffffffffffffffffffffffffffff161461178f576040517f08c379a000000000000000000000000000000000000000000000000000000000815260040161178690612564565b60405180910390fd5b60006002600085815260200190815260200160002090508060040160009054906101000a900460ff166117f7576040517f08c379a00000000000000000000000000000000000000000000000000000000081526004016117ee90612780565b60405180910390fd5b818310611839576040517f08c379a000000000000000000000000000000000000000000000000000000000815260040161183090612b9b565b60405180910390fd5b82816002018190555081816003018190555050505050565b60066020528060005260406000206000915090505481565b60015481565b60007f000000000000000000000000000000000000000000000000000000000000000073ffffffffffffffffffffffffffffffffffffffff163373ffffffffffffffffffffffffffffffffffffffff16146118ff576040517f08c379a00000000000000000000000000000000000000000000000000000000081526004016118f690612564565b60405180910390fd5b60028451101580156119135750600a845111155b611952576040517f08c379a000000000000000000000000000000000000000000000000000000000815260040161194990612c07565b60405180910390fd5b818310611994576040517f08c379a000000000000000000000000000000000000000000000000000000000815260040161198b90612b9b565b60405180910390fd5b6000600160008154809291906119a990612c27565b9190505590506000600260008381526020019081526020016000209050868160000190816119d79190612e1b565b50858160010190805190602001906119f0929190611a8d565b5084816002018190555083816003018190555060018160040160006101000a81548160ff021916908315150217905550817f5d072faeaf3fe9518eca824577834e1efc3ff209025796dd8819b72706cd0bd5888787604051611a5493929190612eed565b60405180910390a28192505050949350505050565b7f000000000000000000000000000000000000000000000000000000000000000081565b828054828255906000526020600020908101928215611ad5579160200282015b82811115611ad4578251829081611ac49190612e1b565b5091602001919060010190611aad565b5b509050611ae29190611ae6565b5090565b5b80821115611b065760008181611afd9190611b0a565b50600101611ae7565b5090565b508054611b16906124e7565b6000825580601f10611b285750611b47565b601f016020900490600052602060002090810190611b469190611b4a565b5b50565b5b80821115611b63576000816000905550600101611b4b565b5090565b6000604051905090565b600080fd5b600080fd5b6000819050919050565b611b8e81611b7b565b8114611b9957600080fd5b50565b600081359050611bab81611b85565b92915050565b600060208284031215611bc757611bc6611b71565b5b6000611bd584828501611b9c565b91505092915050565b600081519050919050565b600082825260208201905092915050565b60005b83811015611c18578082015181840152602081019050611bfd565b60008484015250505050565b6000601f19601f8301169050919050565b6000611c4082611bde565b611c4a8185611be9565b9350611c5a818560208601611bfa565b611c6381611c24565b840191505092915050565b611c7781611b7b565b82525050565b60008115159050919050565b611c9281611c7d565b82525050565b60006080820190508181036000830152611cb28187611c35565b9050611cc16020830186611c6e565b611cce6040830185611c6e565b611cdb6060830184611c89565b95945050505050565b600073ffffffffffffffffffffffffffffffffffffffff82169050919050565b6000611d0f82611ce4565b9050919050565b611d1f81611d04565b8114611d2a57600080fd5b50565b600081359050611d3c81611d16565b92915050565b600060208284031215611d5857611d57611b71565b5b6000611d6684828501611d2d565b91505092915050565b60008060408385031215611d8657611d85611b71565b5b6000611d9485828601611b9c565b9250506020611da585828601611b9c565b9150509250929050565b6000602082019050611dc46000830184611c6e565b92915050565b600080600060608486031215611de357611de2611b71565b5b6000611df186828701611b9c565b9350506020611e0286828701611d2d565b9250506040611e1386828701611b9c565b9150509250925092565b60008060408385031215611e3457611e33611b71565b5b6000611e4285828601611b9c565b9250506020611e5385828601611d2d565b9150509250929050565b6000606082019050611e726000830186611c89565b611e7f6020830185611c6e565b611e8c6040830184611c6e565b949350505050565b600081519050919050565b600082825260208201905092915050565b6000819050602082019050919050565b611ec981611b7b565b82525050565b6000611edb8383611ec0565b60208301905092915050565b6000602082019050919050565b6000611eff82611e94565b611f098185611e9f565b9350611f1483611eb0565b8060005b83811015611f45578151611f2c8882611ecf565b9750611f3783611ee7565b925050600181019050611f18565b5085935050505092915050565b60006020820190508181036000830152611f6c8184611ef4565b905092915050565b611f7d81611d04565b82525050565b6000602082019050611f986000830184611f74565b92915050565b60008060408385031215611fb557611fb4611b71565b5b6000611fc385828601611d2d565b9250506020611fd485828601611b9c565b9150509250929050565b6000606082019050611ff36000830186611c89565b6120006020830185611c89565b61200d6040830184611c6e565b949350505050565b600081519050919050565b600082825260208201905092915050565b6000819050602082019050919050565b600082825260208201905092915050565b600061205d82611bde565b6120678185612041565b9350612077818560208601611bfa565b61208081611c24565b840191505092915050565b60006120978383612052565b905092915050565b6000602082019050919050565b60006120b782612015565b6120c18185612020565b9350836020820285016120d385612031565b8060005b8581101561210f57848403895281516120f0858261208b565b94506120fb8361209f565b925060208a019950506001810190506120d7565b50829750879550505050505092915050565b6000602082019050818103600083015261213b81846120ac565b905092915050565b600060c082019050818103600083015261215d8189611c35565b905061216c6020830188611c6e565b6121796040830187611c6e565b6121866060830186611c6e565b6121936080830185611c6e565b6121a060a0830184611c89565b979650505050505050565b6000806000606084860312156121c4576121c3611b71565b5b60006121d286828701611b9c565b93505060206121e386828701611b9c565b92505060406121f486828701611b9c565b9150509250925092565b600080fd5b600080fd5b7f4e487b7100000000000000000000000000000000000000000000000000000000600052604160045260246000fd5b61224082611c24565b810181811067ffffffffffffffff8211171561225f5761225e612208565b5b80604052505050565b6000612272611b67565b905061227e8282612237565b919050565b600067ffffffffffffffff82111561229e5761229d612208565b5b6122a782611c24565b9050602081019050919050565b82818337600083830152505050565b60006122d66122d184612283565b612268565b9050828152602081018484840111156122f2576122f1612203565b5b6122fd8482856122b4565b509392505050565b600082601f83011261231a576123196121fe565b5b813561232a8482602086016122c3565b91505092915050565b600067ffffffffffffffff82111561234e5761234d612208565b5b602082029050602081019050919050565b600080fd5b600061237761237284612333565b612268565b9050808382526020820190506020840283018581111561239a5761239961235f565b5b835b818110156123e157803567ffffffffffffffff8111156123bf576123be6121fe565b5b8086016123cc8982612305565b8552602085019450505060208101905061239c565b5050509392505050565b600082601f830112612400576123ff6121fe565b5b8135612410848260208601612364565b91505092915050565b6000806000806080858703121561243357612432611b71565b5b600085013567ffffffffffffffff81111561245157612450611b76565b5b61245d87828801612305565b945050602085013567ffffffffffffffff81111561247e5761247d611b76565b5b61248a878288016123eb565b935050604061249b87828801611b9c565b92505060606124ac87828801611b9c565b91505092959194509250565b7f4e487b7100000000000000000000000000000000000000000000000000000000600052602260045260246000fd5b600060028204905060018216806124ff57607f821691505b602082108103612512576125116124b8565b5b50919050565b7f4e6f742061646d696e0000000000000000000000000000000000000000000000600082015250565b600061254e600983611be9565b915061255982612518565b602082019050919050565b6000602082019050818103600083015261257d81612541565b9050919050565b7f4e6f742072656769737465726564000000000000000000000000000000000000600082015250565b60006125ba600e83611be9565b91506125c582612584565b602082019050919050565b600060208201905081810360008301526125e9816125ad565b9050919050565b7f416c726561647920617070726f76656400000000000000000000000000000000600082015250565b6000612626601083611be9565b9150612631826125f0565b602082019050919050565b6000602082019050818103600083015261265581612619565b9050919050565b7f4e6f742072656c61796572000000000000000000000000000000000000000000600082015250565b6000612692600b83611be9565b915061269d8261265c565b602082019050919050565b600060208201905081810360008301526126c181612685565b9050919050565b7f416c726561647920726567697374657265640000000000000000000000000000600082015250565b60006126fe601283611be9565b9150612709826126c8565b602082019050919050565b6000602082019050818103600083015261272d816126f1565b9050919050565b7f50726f706f73616c206e6f7420666f756e640000000000000000000000000000600082015250565b600061276a601283611be9565b915061277582612734565b602082019050919050565b600060208201905081810360008301526127998161275d565b9050919050565b7f566f74696e67206e6f74206f70656e0000000000000000000000000000000000600082015250565b60006127d6600f83611be9565b91506127e1826127a0565b602082019050919050565b60006020820190508181036000830152612805816127c9565b9050919050565b7f566f74696e6720636c6f73656400000000000000000000000000000000000000600082015250565b6000612842600d83611be9565b915061284d8261280c565b602082019050919050565b6000602082019050818103600083015261287181612835565b9050919050565b7f416c726561647920766f74656400000000000000000000000000000000000000600082015250565b60006128ae600d83611be9565b91506128b982612878565b602082019050919050565b600060208201905081810360008301526128dd816128a1565b9050919050565b7f4e6f7420617070726f7665640000000000000000000000000000000000000000600082015250565b600061291a600c83611be9565b9150612925826128e4565b602082019050919050565b600060208201905081810360008301526129498161290d565b9050919050565b7f496e76616c6964206f7074696f6e000000000000000000000000000000000000600082015250565b6000612986600e83611be9565b915061299182612950565b602082019050919050565b600060208201905081810360008301526129b581612979565b9050919050565b7f5a65726f20766f746520706f7765720000000000000000000000000000000000600082015250565b60006129f2600f83611be9565b91506129fd826129bc565b602082019050919050565b60006020820190508181036000830152612a21816129e5565b9050919050565b7f4e487b7100000000000000000000000000000000000000000000000000000000600052601160045260246000fd5b6000612a6282611b7b565b9150612a6d83611b7b565b9250828201905080821115612a8557612a84612a28565b5b92915050565b6000604082019050612aa06000830185611c6e565b612aad6020830184611c6e565b9392505050565b7f4e487b7100000000000000000000000000000000000000000000000000000000600052603260045260246000fd5b7f4e6f7420666f756e640000000000000000000000000000000000000000000000600082015250565b6000612b19600983611be9565b9150612b2482612ae3565b602082019050919050565b60006020820190508181036000830152612b4881612b0c565b9050919050565b7f496e76616c69642077696e646f77000000000000000000000000000000000000600082015250565b6000612b85600e83611be9565b9150612b9082612b4f565b602082019050919050565b60006020820190508181036000830152612bb481612b78565b9050919050565b7f322d3130206f7074696f6e730000000000000000000000000000000000000000600082015250565b6000612bf1600c83611be9565b9150612bfc82612bbb565b602082019050919050565b60006020820190508181036000830152612c2081612be4565b9050919050565b6000612c3282611b7b565b91507fffffffffffffffffffffffffffffffffffffffffffffffffffffffffffffffff8203612c6457612c63612a28565b5b600182019050919050565b60008190508160005260206000209050919050565b60006020601f8301049050919050565b600082821b905092915050565b600060088302612cd17fffffffffffffffffffffffffffffffffffffffffffffffffffffffffffffffff82612c94565b612cdb8683612c94565b95508019841693508086168417925050509392505050565b6000819050919050565b6000612d18612d13612d0e84611b7b565b612cf3565b611b7b565b9050919050565b6000819050919050565b612d3283612cfd565b612d46612d3e82612d1f565b848454612ca1565b825550505050565b600090565b612d5b612d4e565b612d66818484612d29565b505050565b5b81811015612d8a57612d7f600082612d53565b600181019050612d6c565b5050565b601f821115612dcf57612da081612c6f565b612da984612c84565b81016020851015612db8578190505b612dcc612dc485612c84565b830182612d6b565b50505b505050565b600082821c905092915050565b6000612df260001984600802612dd4565b1980831691505092915050565b6000612e0b8383612de1565b9150826002028217905092915050565b612e2482611bde565b67ffffffffffffffff811115612e3d57612e3c612208565b5b612e4782546124e7565b612e52828285612d8e565b600060209050601f831160018114612e855760008415612e73578287015190505b612e7d8582612dff565b865550612ee5565b601f198416612e9386612c6f565b60005b82811015612ebb57848901518255600182019150602085019450602081019050612e96565b86831015612ed85784890151612ed4601f891682612de1565b8355505b6001600288020188555050505b505050505050565b60006060820190508181036000830152612f078186611c35565b9050612f166020830185611c6e565b612f236040830184611c6e565b94935050505056fea264697066735822122054fd21c914eb0c274d6d83d7baf23cd44132a3a625caa6643962ecaf74939a6164736f6c63430008180033",
  "linkReferences": {},
  "deployedLinkReferences": {}
}