{
  "_format": "hh-sol-artifact-1",
  "contractName": "NQGVoting",
  "sourceName": "contracts/NQGVoting.sol",
  "abi": [
    {
      "inputs": [
        {
          "internalType": "address",
          "name": "_relayer",
          "type": "address"
        }
      ],
      "stateMutability": "nonpayable",
      "type": "constructor"
    },
    {
      "anonymous": false,
      "inputs": [
        {
          "indexed": true,
          "internalType": "uint256",
          "name": "proposalId",
          "type": "uint256"
        },
        {
          "indexed": false,
          "internalType": "string",
          "name": "question",
          "type": "string"
        },
        {
          "indexed": false,
          "internalType": "uint256",
          "name": "endTime",
          "type": "uint256"
        }
      ],
      "name": "ProposalCreated",
      "type": "event"
    },
    {
      "anonymous": false,
      "inputs": [
        {
          "indexed": true,
          "internalType": "address",
          "name": "voter",
          "type": "address"
        },
        {
          "indexed": false,
          "internalType": "address[]",
          "name": "delegates",
          "type": "address[]"
        }
      ],
      "name": "QuorumDelegatesSet",
      "type": "event"
    },
    {
      "anonymous": false,
      "inputs": [
        {
          "indexed": true,
          "internalType": "uint256",
          "name": "proposalId",
          "type": "uint256"
        },
        {
          "indexed": true,
          "internalType": "address",
          "name": "voter",
          "type": "address"
        },
        {
          "indexed": false,
          "internalType": "uint256",
          "name": "optionIndex",
          "type": "uint256"
        },
        {
          "indexed": false,
          "internalType": "uint256",
          "name": "weight",
          "type": "uint256"
        }
      ],
      "name": "QuorumVoteResolved",
      "type": "event"
    },
    {
      "anonymous": false,
      "inputs": [
        {
          "indexed": true,
          "internalType": "address",
          "name": "voter",
          "type": "address"
        },
        {
          "indexed": false,
          "internalType": "enum NQGVoting.Tier",
          "name": "newTier",
          "type": "uint8"
        }
      ],
      "name": "TierUpdated",
      "type": "event"
    },
    {
      "anonymous": false,
      "inputs": [
        {
          "indexed": true,
          "internalType": "uint256",
          "name": "proposalId",
          "type": "uint256"
        },
        {
          "indexed": false,
          "internalType": "uint256",
          "name": "optionIndex",
          "type": "uint256"
        },
        {
          "indexed": false,
          "internalType": "uint256",
          "name": "weight",
          "type": "uint256"
        }
      ],
      "name": "VoteCast",
      "type": "event"
    },
    {
      "anonymous": false,
      "inputs": [
        {
          "indexed": true,
          "internalType": "address",
          "name": "voter",
          "type": "address"
        }
      ],
      "name": "VoterRegistered",
      "type": "event"
    },
    {
      "inputs": [],
      "name": "MAX_HISTORY_BONUS",
      "outputs": [
        {
          "internalType": "uint256",
          "name": "",
          "type": "uint256"
        }
      ],
      "stateMutability": "view",
      "type": "function"
    },
    {
      "inputs": [],
      "name": "MAX_QUORUM_SIZE",
      "outputs": [
        {
          "internalType": "uint256",
          "name": "",
          "type": "uint256"
        }
      ],
      "stateMutability": "view",
      "type": "function"
    },
    {
      "inputs": [],
      "name": "MIN_QUORUM_SIZE",
      "outputs": [
        {
          "internalType": "uint256",
          "name": "",
          "type": "uint256"
        }
      ],
      "stateMutability": "view",
      "type": "function"
    },
    {
      "inputs": [
        {
          "internalType": "string",
          "name": "_question",
          "type": "string"
        },
        {
          "internalType": "string[]",
          "name": "_options",
          "type": "string[]"
        },
        {
          "internalType": "uint256",
          "name": "_duration",
          "type": "uint256"
        }
      ],
      "name": "createProposal",
      "outputs": [
        {
          "internalType": "uint256",
          "name": "",
          "type": "uint256"
        }
      ],
      "stateMutability": "nonpayable",
      "type": "function"
    },
    {
      "inputs": [
        {
          "internalType": "uint256",
          "name": "_proposalId",
          "type": "uint256"
        }
      ],
      "name": "getProposalInfo",
      "outputs": [
        {
          "internalType": "string",
          "name": "question",
          "type": "string"
        },
        {
          "internalType": "uint256",
          "name": "endTime",
          "type": "uint256"
        },
        {
          "internalType": "uint256",
          "name": "optionCount",
          "type": "uint256"
        },
        {
          "internalType": "uint256",
          "name": "totalWeight",
          "type": "uint256"
        },
        {
          "internalType": "bool",
          "name": "active",
          "type": "bool"
        }
      ],
      "stateMutability": "view",
      "type": "function"
    },
    {
      "inputs": [
        {
          "internalType": "uint256",
          "name": "_proposalId",
          "type": "uint256"
        }
      ],
      "name": "getProposalOptions",
      "outputs": [
        {
          "internalType": "string[]",
          "name": "",
          "type": "string[]"
        }
      ],
      "stateMutability": "view",
      "type": "function"
    },
    {
      "inputs": [
        {
          "internalType": "address",
          "name": "_voter",
          "type": "address"
        }
      ],
      "name": "getQuorumDelegates",
      "outputs": [
        {
          "internalType": "address[]",
          "name": "",
          "type": "address[]"
        }
      ],
      "stateMutability": "view",
      "type": "function"
    },
    {
      "inputs": [
        {
          "internalType": "uint256",
          "name": "_proposalId",
          "type": "uint256"
        }
      ],
      "name": "getResults",
      "outputs": [
        {
          "internalType": "uint256[]",
          "name": "",
          "type": "uint256[]"
        }
      ],
      "stateMutability": "view",
      "type": "function"
    },
    {
      "inputs": [
        {
          "internalType": "address",
          "name": "_voter",
          "type": "address"
        }
      ],
      "name": "getVotePower",
      "outputs": [
        {
          "internalType": "uint256",
          "name": "",
          "type": "uint256"
        }
      ],
      "stateMutability": "view",
      "type": "function"
    },
    {
      "inputs": [
        {
          "internalType": "address",
          "name": "_voter",
          "type": "address"
        }
      ],
      "name": "getVoterInfo",
      "outputs": [
        {
          "internalType": "bool",
          "name": "registered",
          "type": "bool"
        },
        {
          "internalType": "uint256",
          "name": "tier",
          "type": "uint256"
        },
        {
          "internalType": "uint256",
          "name": "votesParticipated",
          "type": "uint256"
        },
        {
          "internalType": "uint256",
          "name": "votePower",
          "type": "uint256"
        },
        {
          "internalType": "uint256",
          "name": "quorumSize",
          "type": "uint256"
        }
      ],
      "stateMutability": "view",
      "type": "function"
    },
    {
      "inputs": [],
      "name": "owner",
      "outputs": [
        {
          "internalType": "address",
          "name": "",
          "type": "address"
        }
      ],
      "stateMutability": "view",
      "type": "function"
    },
    {
      "inputs": [],
      "name": "proposalCount",
      "outputs": [
        {
          "internalType": "uint256",
          "name": "",
          "type": "uint256"
        }
      ],
      "stateMutability": "view",
      "type": "function"
    },
    {
      "inputs": [
        {
          "internalType": "uint256",
          "name": "",
          "type": "uint256"
        }
      ],
      "name": "proposals",
      "outputs": [
        {
          "internalType": "string",
          "name": "question",
          "type": "string"
        },
        {
          "internalType": "uint256",
          "name": "endTime",
          "type": "uint256"
        },
        {
          "internalType": "address",
          "name": "creator",
          "type": "address"
        },
        {
          "internalType": "bool",
          "name": "exists",
          "type": "bool"
        },
        {
          "internalType": "bool",
          "name": "quorumResolved",
          "type": "bool"
        }
      ],
      "stateMutability": "view",
      "type": "function"
    },
    {
      "inputs": [
        {
          "internalType": "address",
          "name": "_voter",
          "type": "address"
        }
      ],
      "name": "registerVoter",
      "outputs": [],
      "stateMutability": "nonpayable",
      "type": "function"
    },
    {
      "inputs": [],
      "name": "relayer",
      "outputs": [
        {
          "internalType": "address",
          "name": "",
          "type": "address"
        }
      ],
      "stateMutability": "view",
      "type": "function"
    },
    {
      "inputs": [
        {
          "internalType": "uint256",
          "name": "_proposalId",
          "type": "uint256"
        },
        {
          "internalType": "address",
          "name": "_voter",
          "type": "address"
        }
      ],
      "name": "resolveQuorumVote",
      "outputs": [],
      "stateMutability": "nonpayable",
      "type": "function"
    },
    {
      "inputs": [
        {
          "internalType": "address",
          "name": "_voter",
          "type": "address"
        },
        {
          "internalType": "address[]",
          "name": "_delegates",
          "type": "address[]"
        }
      ],
      "name": "setQuorumDelegates",
      "outputs": [],
      "stateMutability": "nonpayable",
      "type": "function"
    },
    {
      "inputs": [
        {
          "internalType": "address",
          "name": "_voter",
          "type": "address"
        },
        {
          "internalType": "enum NQGVoting.Tier",
          "name": "_tier",
          "type": "uint8"
        }
      ],
      "name": "setVoterTier",
      "outputs": [],
      "stateMutability": "nonpayable",
      "type": "function"
    },
    {
      "inputs": [
        {
          "internalType": "uint256",
          "name": "",
          "type": "uint256"
        }
      ],
      "name": "tierScores",
      "outputs": [
        {
          "internalType": "uint256",
          "name": "",
          "type": "uint256"
        }
      ],
      "stateMutability": "view",
      "type": "function"
    },
    {
      "inputs": [
        {
          "internalType": "uint256",
          "name": "",
          "type": "uint256"
        }
      ],
      "name": "totalVoteWeight",
      "outputs": [
        {
          "internalType": "uint256",
          "name": "",
          "type": "uint256"
        }
      ],
      "stateMutability": "view",
      "type": "function"
    },
    {
      "inputs": [
        {
          "internalType": "uint256",
          "name": "_proposalId",
          "type": "uint256"
        },
        {
          "internalType": "address",
          "name": "_voter",
          "type": "address"
        },
        {
          "internalType": "uint256",
          "name": "_optionIndex",
          "type": "uint256"
        }
      ],
      "name": "vote",
      "outputs": [],
      "stateMutability": "nonpayable",
      "type": "function"
    },
    {
      "inputs": [
        {
          "internalType": "uint256",
          "name": "",
          "type": "uint256"
        },
        {
          "internalType": "address",
          "name": "",
          "type": "address"
        }
      ],
      "name": "voteRecords",
      "outputs": [
        {
          "internalType": "bool",
          "name": "hasVoted",
          "type": "bool"
        },
        {
          "internalType": "uint256",
          "name": "optionIndex",
          "type": "uint256"
        },
        {
          "internalType": "uint256",
          "name": "weight",
          "type": "uint256"
        }
      ],
      "stateMutability": "view",
      "type": "function"
    },
    {
      "inputs": [
        {
          "internalType": "uint256",
          "name": "",
          "type": "uint256"
        },
        {
          "internalType": "uint256",
          "name": "",
          "type": "uint256"
        }
      ],
      "name": "voteTallies",
      "outputs": [
        {
          "internalType": "uint256",
          "name": "",
          "type": "uint256"
        }
      ],
      "stateMutability": "view",
      "type": "function"
    },
    {
      "inputs": [
        {
          "internalType": "address",
          "name": "",
          "type": "address"
        }
      ],
      "name": "voters",
      "outputs": [
        {
          "internalType": "enum NQGVoting.Tier",
          "name": "tier",
          "type": "uint8"
        },
        {
          "internalType": "uint256",
          "name": "votesParticipated",
          "type": "uint256"
        },
        {
          "internalType": "bool",
          "name": "registered",
          "type": "bool"
        }
      ],
      "stateMutability": "view",
      "type": "function"
    }
  ],
  "bytecode": "0x60806040526040518060800160405280600160ff168152602001600360ff168152602001600560ff168152602001600860ff1681525060039060046200004792919062000103565b503480156200005557600080fd5b5060405162003ea838038062003ea883398181016040528101906200007b9190620001d6565b336000806101000a81548173ffffffffffffffffffffffffffffffffffffffff021916908373ffffffffffffffffffffffffffffffffffffffff16021790555080600160006101000a81548173ffffffffffffffffffffffffffffffffffffffff021916908373ffffffffffffffffffffffffffffffffffffffff1602179055505062000208565b82600481019282156200013a579160200282015b8281111562000139578251829060ff1690559160200191906001019062000117565b5b5090506200014991906200014d565b5090565b5b80821115620001685760008160009055506001016200014e565b5090565b600080fd5b600073ffffffffffffffffffffffffffffffffffffffff82169050919050565b60006200019e8262000171565b9050919050565b620001b08162000191565b8114620001bc57600080fd5b50565b600081519050620001d081620001a5565b92915050565b600060208284031215620001ef57620001ee6200016c565b5b6000620001ff84828501620001bf565b91505092915050565b613c9080620002186000396000f3fe608060405234801561001057600080fd5b50600436106101585760003560e01c80638da5cb5b116100c3578063bc903cb81161007c578063bc903cb814610443578063c9b84e8914610477578063d6745ec5146104a7578063d8e469dc146104c3578063da35c664146104e1578063dd52ed5a146104ff57610158565b80638da5cb5b146103435780639ed1f25514610361578063a1bd71b914610395578063a3ec138d146103c5578063b8cf0bc5146103f7578063bb9c09201461041357610158565b80634c8fd77f116101155780634c8fd77f1461025b5780634de8737c1461028b57806355e180df146102a757806381a60c0d146102d95780638406c0791461030957806384b208001461032757610158565b8063013cf08b1461015d578063086a268f1461019157806321155e32146101c15780632cd31c54146101df57806338db6dd31461020f5780633989ae341461022b575b600080fd5b6101776004803603810190610172919061259e565b61051d565b6040516101889594939291906126c6565b60405180910390f35b6101ab60048036038101906101a6919061274c565b610615565b6040516101b89190612837565b60405180910390f35b6101c96106e5565b6040516101d69190612859565b60405180910390f35b6101f960048036038101906101f49190612874565b6106ea565b6040516102069190612859565b60405180910390f35b6102296004803603810190610224919061274c565b61070f565b005b61024560048036038101906102409190612acf565b610991565b6040516102529190612859565b60405180910390f35b6102756004803603810190610270919061259e565b610c2a565b6040516102829190612859565b60405180910390f35b6102a560048036038101906102a09190612b5a565b610c45565b005b6102c160048036038101906102bc9190612bad565b611102565b6040516102d093929190612bed565b60405180910390f35b6102f360048036038101906102ee919061259e565b611146565b6040516103009190612ce2565b60405180910390f35b610311611272565b60405161031e9190612d04565b60405180910390f35b610341600480360381019061033c9190612bad565b611298565b005b61034b611980565b6040516103589190612d04565b60405180910390f35b61037b6004803603810190610376919061274c565b6119a4565b60405161038c959493929190612d1f565b60405180910390f35b6103af60048036038101906103aa919061259e565b611a4e565b6040516103bc9190612e7e565b60405180910390f35b6103df60048036038101906103da919061274c565b611ba0565b6040516103ee93929190612f17565b60405180910390f35b610411600480360381019061040c9190613011565b611be4565b005b61042d6004803603810190610428919061274c565b611fa0565b60405161043a9190612859565b60405180910390f35b61045d6004803603810190610458919061259e565b6120b3565b60405161046e95949392919061306d565b60405180910390f35b610491600480360381019061048c919061259e565b6121ef565b60405161049e9190612859565b60405180910390f35b6104c160048036038101906104bc91906130ec565b612207565b005b6104cb6123e0565b6040516104d89190612859565b60405180910390f35b6104e96123e5565b6040516104f69190612859565b60405180910390f35b6105076123eb565b6040516105149190612859565b60405180910390f35b60076020528060005260406000206000915090508060000180546105409061315b565b80601f016020809104026020016040519081016040528092919081815260200182805461056c9061315b565b80156105b95780601f1061058e576101008083540402835291602001916105b9565b820191906000526020600020905b81548152906001019060200180831161059c57829003601f168201915b5050505050908060020154908060030160009054906101000a900473ffffffffffffffffffffffffffffffffffffffff16908060030160149054906101000a900460ff16908060030160159054906101000a900460ff16905085565b6060600a60008373ffffffffffffffffffffffffffffffffffffffff1673ffffffffffffffffffffffffffffffffffffffff1681526020019081526020016000206002018054806020026020016040519081016040528092919081815260200182805480156106d957602002820191906000526020600020905b8160009054906101000a900473ffffffffffffffffffffffffffffffffffffffff1673ffffffffffffffffffffffffffffffffffffffff168152602001906001019080831161068f575b50505050509050919050565b600581565b6008602052816000526040600020602052806000526040600020600091509150505481565b600160009054906101000a900473ffffffffffffffffffffffffffffffffffffffff1673ffffffffffffffffffffffffffffffffffffffff163373ffffffffffffffffffffffffffffffffffffffff1614806107b6575060008054906101000a900473ffffffffffffffffffffffffffffffffffffffff1673ffffffffffffffffffffffffffffffffffffffff163373ffffffffffffffffffffffffffffffffffffffff16145b6107f5576040517f08c379a00000000000000000000000000000000000000000000000000000000081526004016107ec906131d8565b60405180910390fd5b600a60008273ffffffffffffffffffffffffffffffffffffffff1673ffffffffffffffffffffffffffffffffffffffff16815260200190815260200160002060030160009054906101000a900460ff1615610885576040517f08c379a000000000000000000000000000000000000000000000000000000000815260040161087c90613244565b60405180910390fd5b6001600a60008373ffffffffffffffffffffffffffffffffffffffff1673ffffffffffffffffffffffffffffffffffffffff16815260200190815260200160002060030160006101000a81548160ff0219169083151502179055506000600a60008373ffffffffffffffffffffffffffffffffffffffff1673ffffffffffffffffffffffffffffffffffffffff16815260200190815260200160002060000160006101000a81548160ff0219169083600381111561094657610945612ea0565b5b02179055508073ffffffffffffffffffffffffffffffffffffffff167fb6be2187d059cc2a55fe29e0e503b566e1e0f8c8780096e185429350acffd3dd60405160405180910390a250565b6000600160009054906101000a900473ffffffffffffffffffffffffffffffffffffffff1673ffffffffffffffffffffffffffffffffffffffff163373ffffffffffffffffffffffffffffffffffffffff161480610a3a575060008054906101000a900473ffffffffffffffffffffffffffffffffffffffff1673ffffffffffffffffffffffffffffffffffffffff163373ffffffffffffffffffffffffffffffffffffffff16145b610a79576040517f08c379a0000000000000000000000000000000000000000000000000000000008152600401610a70906131d8565b60405180910390fd5b6002835110158015610a8d5750600a835111155b610acc576040517f08c379a0000000000000000000000000000000000000000000000000000000008152600401610ac3906132b0565b60405180910390fd5b60008211610b0f576040517f08c379a0000000000000000000000000000000000000000000000000000000008152600401610b069061331c565b60405180910390fd5b600060026000815480929190610b249061336b565b919050559050600060076000838152602001908152602001600020905085816000019081610b52919061355f565b5084816001019080519060200190610b6b9291906123f0565b508342610b789190613631565b8160020181905550338160030160006101000a81548173ffffffffffffffffffffffffffffffffffffffff021916908373ffffffffffffffffffffffffffffffffffffffff16021790555060018160030160146101000a81548160ff021916908315150217905550817ff5dc0da9afa6d080780a49fd8c680f03d2ddf3c067cd6d0c85360c096644d2d3878360020154604051610c16929190613665565b60405180910390a281925050509392505050565b60038160048110610c3a57600080fd5b016000915090505481565b600160009054906101000a900473ffffffffffffffffffffffffffffffffffffffff1673ffffffffffffffffffffffffffffffffffffffff163373ffffffffffffffffffffffffffffffffffffffff161480610cec575060008054906101000a900473ffffffffffffffffffffffffffffffffffffffff1673ffffffffffffffffffffffffffffffffffffffff163373ffffffffffffffffffffffffffffffffffffffff16145b610d2b576040517f08c379a0000000000000000000000000000000000000000000000000000000008152600401610d22906131d8565b60405180910390fd5b60006007600085815260200190815260200160002090508060030160149054906101000a900460ff16610d93576040517f08c379a0000000000000000000000000000000000000000000000000000000008152600401610d8a906136e1565b60405180910390fd5b80600201544210610dd9576040517f08c379a0000000000000000000000000000000000000000000000000000000008152600401610dd09061374d565b60405180910390fd5b6009600085815260200190815260200160002060008473ffffffffffffffffffffffffffffffffffffffff1673ffffffffffffffffffffffffffffffffffffffff16815260200190815260200160002060000160009054906101000a900460ff1615610e7a576040517f08c379a0000000000000000000000000000000000000000000000000000000008152600401610e71906137b9565b60405180910390fd5b600a60008473ffffffffffffffffffffffffffffffffffffffff1673ffffffffffffffffffffffffffffffffffffffff16815260200190815260200160002060030160009054906101000a900460ff16610f09576040517f08c379a0000000000000000000000000000000000000000000000000000000008152600401610f0090613825565b60405180910390fd5b80600101805490508210610f52576040517f08c379a0000000000000000000000000000000000000000000000000000000008152600401610f4990613891565b60405180910390fd5b6000610f5d84611fa0565b90506040518060600160405280600115158152602001848152602001828152506009600087815260200190815260200160002060008673ffffffffffffffffffffffffffffffffffffffff1673ffffffffffffffffffffffffffffffffffffffff16815260200190815260200160002060008201518160000160006101000a81548160ff02191690831515021790555060208201518160010155604082015181600201559050508060086000878152602001908152602001600020600085815260200190815260200160002060008282546110389190613631565b9250508190555080600b600087815260200190815260200160002060008282546110629190613631565b92505081905550600a60008573ffffffffffffffffffffffffffffffffffffffff1673ffffffffffffffffffffffffffffffffffffffff16815260200190815260200160002060010160008154809291906110bc9061336b565b9190505550847f24930ecca7f60d4736cd965cb5522694ea4b32308405d3f88fea2f59eff63caa84836040516110f39291906138b1565b60405180910390a25050505050565b6009602052816000526040600020602052806000526040600020600091509150508060000160009054906101000a900460ff16908060010154908060020154905083565b606060006007600084815260200190815260200160002090508060030160149054906101000a900460ff166111b0576040517f08c379a00000000000000000000000000000000000000000000000000000000081526004016111a7906136e1565b60405180910390fd5b6000816001018054905067ffffffffffffffff8111156111d3576111d26128be565b5b6040519080825280602002602001820160405280156112015781602001602082028036833780820191505090505b50905060005b8260010180549050811015611267576008600086815260200190815260200160002060008281526020019081526020016000205482828151811061124e5761124d6138da565b5b6020026020010181815250508080600101915050611207565b508092505050919050565b600160009054906101000a900473ffffffffffffffffffffffffffffffffffffffff1681565b600160009054906101000a900473ffffffffffffffffffffffffffffffffffffffff1673ffffffffffffffffffffffffffffffffffffffff163373ffffffffffffffffffffffffffffffffffffffff16148061133f575060008054906101000a900473ffffffffffffffffffffffffffffffffffffffff1673ffffffffffffffffffffffffffffffffffffffff163373ffffffffffffffffffffffffffffffffffffffff16145b61137e576040517f08c379a0000000000000000000000000000000000000000000000000000000008152600401611375906131d8565b60405180910390fd5b60006007600084815260200190815260200160002090508060030160149054906101000a900460ff166113e6576040517f08c379a00000000000000000000000000000000000000000000000000000000081526004016113dd906136e1565b60405180910390fd5b6009600084815260200190815260200160002060008373ffffffffffffffffffffffffffffffffffffffff1673ffffffffffffffffffffffffffffffffffffffff16815260200190815260200160002060000160009054906101000a900460ff1615611487576040517f08c379a000000000000000000000000000000000000000000000000000000000815260040161147e906137b9565b60405180910390fd5b600a60008373ffffffffffffffffffffffffffffffffffffffff1673ffffffffffffffffffffffffffffffffffffffff16815260200190815260200160002060030160009054906101000a900460ff16611516576040517f08c379a000000000000000000000000000000000000000000000000000000000815260040161150d90613825565b60405180910390fd5b6000600a60008473ffffffffffffffffffffffffffffffffffffffff1673ffffffffffffffffffffffffffffffffffffffff16815260200190815260200160002060020190506003818054905010156115a4576040517f08c379a000000000000000000000000000000000000000000000000000000000815260040161159b90613955565b60405180910390fd5b60008260010180549050905060008167ffffffffffffffff8111156115cc576115cb6128be565b5b6040519080825280602002602001820160405280156115fa5781602001602082028036833780820191505090505b5090506000805b8480549050811015611702576000600960008a81526020019081526020016000206000878481548110611637576116366138da565b5b9060005260206000200160009054906101000a900473ffffffffffffffffffffffffffffffffffffffff1673ffffffffffffffffffffffffffffffffffffffff1673ffffffffffffffffffffffffffffffffffffffff16815260200190815260200160002090508060000160009054906101000a900460ff16156116f457838160010154815181106116cc576116cb6138da565b5b6020026020010180518091906116e19061336b565b8152505082806116f09061336b565b9350505b508080600101915050611601565b5083805490506002826117159190613975565b11611755576040517f08c379a000000000000000000000000000000000000000000000000000000000815260040161174c90613a03565b60405180910390fd5b60008060005b858110156117b35781858281518110611777576117766138da565b5b602002602001015111156117a657848181518110611798576117976138da565b5b602002602001015191508092505b808060010191505061175b565b5060006117bf89611fa0565b9050604051806060016040528060011515815260200184815260200182815250600960008c815260200190815260200160002060008b73ffffffffffffffffffffffffffffffffffffffff1673ffffffffffffffffffffffffffffffffffffffff16815260200190815260200160002060008201518160000160006101000a81548160ff021916908315150217905550602082015181600101556040820151816002015590505080600860008c81526020019081526020016000206000858152602001908152602001600020600082825461189a9190613631565b9250508190555080600b60008c815260200190815260200160002060008282546118c49190613631565b92505081905550600a60008a73ffffffffffffffffffffffffffffffffffffffff1673ffffffffffffffffffffffffffffffffffffffff168152602001908152602001600020600101600081548092919061191e9061336b565b91905055508873ffffffffffffffffffffffffffffffffffffffff168a7f2b9e76c951245aee9b9735e3c80271cbf249cfc8c4233a92e14497125cc5214a858460405161196c9291906138b1565b60405180910390a350505050505050505050565b60008054906101000a900473ffffffffffffffffffffffffffffffffffffffff1681565b600080600080600080600a60008873ffffffffffffffffffffffffffffffffffffffff1673ffffffffffffffffffffffffffffffffffffffff16815260200190815260200160002090508060030160009054906101000a900460ff168160000160009054906101000a900460ff166003811115611a2457611a23612ea0565b5b8260010154611a328a611fa0565b8460020180549050955095509550955095505091939590929450565b60606007600083815260200190815260200160002060030160149054906101000a900460ff16611ab3576040517f08c379a0000000000000000000000000000000000000000000000000000000008152600401611aaa90613a6f565b60405180910390fd5b60076000838152602001908152602001600020600101805480602002602001604051908101604052809291908181526020016000905b82821015611b95578382906000526020600020018054611b089061315b565b80601f0160208091040260200160405190810160405280929190818152602001828054611b349061315b565b8015611b815780601f10611b5657610100808354040283529160200191611b81565b820191906000526020600020905b815481529060010190602001808311611b6457829003601f168201915b505050505081526020019060010190611ae9565b505050509050919050565b600a6020528060005260406000206000915090508060000160009054906101000a900460ff16908060010154908060030160009054906101000a900460ff16905083565b600160009054906101000a900473ffffffffffffffffffffffffffffffffffffffff1673ffffffffffffffffffffffffffffffffffffffff163373ffffffffffffffffffffffffffffffffffffffff161480611c8b575060008054906101000a900473ffffffffffffffffffffffffffffffffffffffff1673ffffffffffffffffffffffffffffffffffffffff163373ffffffffffffffffffffffffffffffffffffffff16145b611cca576040517f08c379a0000000000000000000000000000000000000000000000000000000008152600401611cc1906131d8565b60405180910390fd5b600a60008373ffffffffffffffffffffffffffffffffffffffff1673ffffffffffffffffffffffffffffffffffffffff16815260200190815260200160002060030160009054906101000a900460ff16611d59576040517f08c379a0000000000000000000000000000000000000000000000000000000008152600401611d5090613825565b60405180910390fd5b6003815110158015611d6d57506005815111155b611dac576040517f08c379a0000000000000000000000000000000000000000000000000000000008152600401611da390613adb565b60405180910390fd5b60005b8151811015611ef657600a6000838381518110611dcf57611dce6138da565b5b602002602001015173ffffffffffffffffffffffffffffffffffffffff1673ffffffffffffffffffffffffffffffffffffffff16815260200190815260200160002060030160009054906101000a900460ff16611e61576040517f08c379a0000000000000000000000000000000000000000000000000000000008152600401611e5890613b47565b60405180910390fd5b8273ffffffffffffffffffffffffffffffffffffffff16828281518110611e8b57611e8a6138da565b5b602002602001015173ffffffffffffffffffffffffffffffffffffffff1603611ee9576040517f08c379a0000000000000000000000000000000000000000000000000000000008152600401611ee090613bb3565b60405180910390fd5b8080600101915050611daf565b5080600a60008473ffffffffffffffffffffffffffffffffffffffff1673ffffffffffffffffffffffffffffffffffffffff1681526020019081526020016000206002019080519060200190611f4d929190612449565b508173ffffffffffffffffffffffffffffffffffffffff167f16c18372976f32dd2e562b1569482fbcce1084bbb084e986ad1645df4f629ad682604051611f949190612837565b60405180910390a25050565b6000600a60008373ffffffffffffffffffffffffffffffffffffffff1673ffffffffffffffffffffffffffffffffffffffff16815260200190815260200160002060030160009054906101000a900460ff16611fff57600090506120ae565b6000600a60008473ffffffffffffffffffffffffffffffffffffffff1673ffffffffffffffffffffffffffffffffffffffff1681526020019081526020016000209050600060038260000160009054906101000a900460ff16600381111561206a57612069612ea0565b5b6004811061207b5761207a6138da565b5b015490506000600583600101541161209757826001015461209a565b60055b905080826120a89190613631565b93505050505b919050565b606060008060008060006007600088815260200190815260200160002090508060030160149054906101000a900460ff16612123576040517f08c379a000000000000000000000000000000000000000000000000000000000815260040161211a90613a6f565b60405180910390fd5b8060000181600201548260010180549050600b60008b8152602001908152602001600020548460020154421084805461215b9061315b565b80601f01602080910402602001604051908101604052809291908181526020018280546121879061315b565b80156121d45780601f106121a9576101008083540402835291602001916121d4565b820191906000526020600020905b8154815290600101906020018083116121b757829003601f168201915b50505050509450955095509550955095505091939590929450565b600b6020528060005260406000206000915090505481565b60008054906101000a900473ffffffffffffffffffffffffffffffffffffffff1673ffffffffffffffffffffffffffffffffffffffff163373ffffffffffffffffffffffffffffffffffffffff1614612295576040517f08c379a000000000000000000000000000000000000000000000000000000000815260040161228c90613c1f565b60405180910390fd5b600a60008373ffffffffffffffffffffffffffffffffffffffff1673ffffffffffffffffffffffffffffffffffffffff16815260200190815260200160002060030160009054906101000a900460ff16612324576040517f08c379a000000000000000000000000000000000000000000000000000000000815260040161231b90613825565b60405180910390fd5b80600a60008473ffffffffffffffffffffffffffffffffffffffff1673ffffffffffffffffffffffffffffffffffffffff16815260200190815260200160002060000160006101000a81548160ff0219169083600381111561238957612388612ea0565b5b02179055508173ffffffffffffffffffffffffffffffffffffffff167ff0880b9fd3445ca37e9b5cf896eb23e5292331792ae8b6e4c45bc527c713adad826040516123d49190613c3f565b60405180910390a25050565b600581565b60025481565b600381565b828054828255906000526020600020908101928215612438579160200282015b82811115612437578251829081612427919061355f565b5091602001919060010190612410565b5b50905061244591906124d3565b5090565b8280548282559060005260206000209081019282156124c2579160200282015b828111156124c15782518260006101000a81548173ffffffffffffffffffffffffffffffffffffffff021916908373ffffffffffffffffffffffffffffffffffffffff16021790555091602001919060010190612469565b5b5090506124cf91906124f7565b5090565b5b808211156124f357600081816124ea9190612514565b506001016124d4565b5090565b5b808211156125105760008160009055506001016124f8565b5090565b5080546125209061315b565b6000825580601f106125325750612551565b601f01602090049060005260206000209081019061255091906124f7565b5b50565b6000604051905090565b600080fd5b600080fd5b6000819050919050565b61257b81612568565b811461258657600080fd5b50565b60008135905061259881612572565b92915050565b6000602082840312156125b4576125b361255e565b5b60006125c284828501612589565b91505092915050565b600081519050919050565b600082825260208201905092915050565b60005b838110156126055780820151818401526020810190506125ea565b60008484015250505050565b6000601f19601f8301169050919050565b600061262d826125cb565b61263781856125d6565b93506126478185602086016125e7565b61265081612611565b840191505092915050565b61266481612568565b82525050565b600073ffffffffffffffffffffffffffffffffffffffff82169050919050565b60006126958261266a565b9050919050565b6126a58161268a565b82525050565b60008115159050919050565b6126c0816126ab565b82525050565b600060a08201905081810360008301526126e08188612622565b90506126ef602083018761265b565b6126fc604083018661269c565b61270960608301856126b7565b61271660808301846126b7565b9695505050505050565b6127298161268a565b811461273457600080fd5b50565b60008135905061274681612720565b92915050565b6000602082840312156127625761276161255e565b5b600061277084828501612737565b91505092915050565b600081519050919050565b600082825260208201905092915050565b6000819050602082019050919050565b6127ae8161268a565b82525050565b60006127c083836127a5565b60208301905092915050565b6000602082019050919050565b60006127e482612779565b6127ee8185612784565b93506127f983612795565b8060005b8381101561282a57815161281188826127b4565b975061281c836127cc565b9250506001810190506127fd565b5085935050505092915050565b6000602082019050818103600083015261285181846127d9565b905092915050565b600060208201905061286e600083018461265b565b92915050565b6000806040838503121561288b5761288a61255e565b5b600061289985828601612589565b92505060206128aa85828601612589565b9150509250929050565b600080fd5b600080fd5b7f4e487b7100000000000000000000000000000000000000000000000000000000600052604160045260246000fd5b6128f682612611565b810181811067ffffffffffffffff82111715612915576129146128be565b5b80604052505050565b6000612928612554565b905061293482826128ed565b919050565b600067ffffffffffffffff821115612954576129536128be565b5b61295d82612611565b9050602081019050919050565b82818337600083830152505050565b600061298c61298784612939565b61291e565b9050828152602081018484840111156129a8576129a76128b9565b5b6129b384828561296a565b509392505050565b600082601f8301126129d0576129cf6128b4565b5b81356129e0848260208601612979565b91505092915050565b600067ffffffffffffffff821115612a0457612a036128be565b5b602082029050602081019050919050565b600080fd5b6000612a2d612a28846129e9565b61291e565b90508083825260208201905060208402830185811115612a5057612a4f612a15565b5b835b81811015612a9757803567ffffffffffffffff811115612a7557612a746128b4565b5b808601612a8289826129bb565b85526020850194505050602081019050612a52565b5050509392505050565b600082601f830112612ab657612ab56128b4565b5b8135612ac6848260208601612a1a565b91505092915050565b600080600060608486031215612ae857612ae761255e565b5b600084013567ffffffffffffffff811115612b0657612b05612563565b5b612b12868287016129bb565b935050602084013567ffffffffffffffff811115612b3357612b32612563565b5b612b3f86828701612aa1565b9250506040612b5086828701612589565b9150509250925092565b600080600060608486031215612b7357612b7261255e565b5b6000612b8186828701612589565b9350506020612b9286828701612737565b9250506040612ba386828701612589565b9150509250925092565b60008060408385031215612bc457612bc361255e565b5b6000612bd285828601612589565b9250506020612be385828601612737565b9150509250929050565b6000606082019050612c0260008301866126b7565b612c0f602083018561265b565b612c1c604083018461265b565b949350505050565b600081519050919050565b600082825260208201905092915050565b6000819050602082019050919050565b612c5981612568565b82525050565b6000612c6b8383612c50565b60208301905092915050565b6000602082019050919050565b6000612c8f82612c24565b612c998185612c2f565b9350612ca483612c40565b8060005b83811015612cd5578151612cbc8882612c5f565b9750612cc783612c77565b925050600181019050612ca8565b5085935050505092915050565b60006020820190508181036000830152612cfc8184612c84565b905092915050565b6000602082019050612d19600083018461269c565b92915050565b600060a082019050612d3460008301886126b7565b612d41602083018761265b565b612d4e604083018661265b565b612d5b606083018561265b565b612d68608083018461265b565b9695505050505050565b600081519050919050565b600082825260208201905092915050565b6000819050602082019050919050565b600082825260208201905092915050565b6000612dba826125cb565b612dc48185612d9e565b9350612dd48185602086016125e7565b612ddd81612611565b840191505092915050565b6000612df48383612daf565b905092915050565b6000602082019050919050565b6000612e1482612d72565b612e1e8185612d7d565b935083602082028501612e3085612d8e565b8060005b85811015612e6c5784840389528151612e4d8582612de8565b9450612e5883612dfc565b925060208a01995050600181019050612e34565b50829750879550505050505092915050565b60006020820190508181036000830152612e988184612e09565b905092915050565b7f4e487b7100000000000000000000000000000000000000000000000000000000600052602160045260246000fd5b60048110612ee057612edf612ea0565b5b50565b6000819050612ef182612ecf565b919050565b6000612f0182612ee3565b9050919050565b612f1181612ef6565b82525050565b6000606082019050612f2c6000830186612f08565b612f39602083018561265b565b612f4660408301846126b7565b949350505050565b600067ffffffffffffffff821115612f6957612f686128be565b5b602082029050602081019050919050565b6000612f8d612f8884612f4e565b61291e565b90508083825260208201905060208402830185811115612fb057612faf612a15565b5b835b81811015612fd95780612fc58882612737565b845260208401935050602081019050612fb2565b5050509392505050565b600082601f830112612ff857612ff76128b4565b5b8135613008848260208601612f7a565b91505092915050565b600080604083850312156130285761302761255e565b5b600061303685828601612737565b925050602083013567ffffffffffffffff81111561305757613056612563565b5b61306385828601612fe3565b9150509250929050565b600060a08201905081810360008301526130878188612622565b9050613096602083018761265b565b6130a3604083018661265b565b6130b0606083018561265b565b6130bd60808301846126b7565b9695505050505050565b600481106130d457600080fd5b50565b6000813590506130e6816130c7565b92915050565b600080604083850312156131035761310261255e565b5b600061311185828601612737565b9250506020613122858286016130d7565b9150509250929050565b7f4e487b7100000000000000000000000000000000000000000000000000000000600052602260045260246000fd5b6000600282049050600182168061317357607f821691505b6020821081036131865761318561312c565b5b50919050565b7f4e6f742072656c61796572000000000000000000000000000000000000000000600082015250565b60006131c2600b836125d6565b91506131cd8261318c565b602082019050919050565b600060208201905081810360008301526131f1816131b5565b9050919050565b7f416c726561647920726567697374657265640000000000000000000000000000600082015250565b600061322e6012836125d6565b9150613239826131f8565b602082019050919050565b6000602082019050818103600083015261325d81613221565b9050919050565b7f322d3130206f7074696f6e730000000000000000000000000000000000000000600082015250565b600061329a600c836125d6565b91506132a582613264565b602082019050919050565b600060208201905081810360008301526132c98161328d565b9050919050565b7f4475726174696f6e206d757374206265203e2030000000000000000000000000600082015250565b60006133066014836125d6565b9150613311826132d0565b602082019050919050565b60006020820190508181036000830152613335816132f9565b9050919050565b7f4e487b7100000000000000000000000000000000000000000000000000000000600052601160045260246000fd5b600061337682612568565b91507fffffffffffffffffffffffffffffffffffffffffffffffffffffffffffffffff82036133a8576133a761333c565b5b600182019050919050565b60008190508160005260206000209050919050565b60006020601f8301049050919050565b600082821b905092915050565b6000600883026134157fffffffffffffffffffffffffffffffffffffffffffffffffffffffffffffffff826133d8565b61341f86836133d8565b95508019841693508086168417925050509392505050565b6000819050919050565b600061345c61345761345284612568565b613437565b612568565b9050919050565b6000819050919050565b61347683613441565b61348a61348282613463565b8484546133e5565b825550505050565b600090565b61349f613492565b6134aa81848461346d565b505050565b5b818110156134ce576134c3600082613497565b6001810190506134b0565b5050565b601f821115613513576134e4816133b3565b6134ed846133c8565b810160208510156134fc578190505b613510613508856133c8565b8301826134af565b50505b505050565b600082821c905092915050565b600061353660001984600802613518565b1980831691505092915050565b600061354f8383613525565b9150826002028217905092915050565b613568826125cb565b67ffffffffffffffff811115613581576135806128be565b5b61358b825461315b565b6135968282856134d2565b600060209050601f8311600181146135c957600084156135b7578287015190505b6135c18582613543565b865550613629565b601f1984166135d7866133b3565b60005b828110156135ff578489015182556001820191506020850194506020810190506135da565b8683101561361c5784890151613618601f891682613525565b8355505b6001600288020188555050505b505050505050565b600061363c82612568565b915061364783612568565b925082820190508082111561365f5761365e61333c565b5b92915050565b6000604082019050818103600083015261367f8185612622565b905061368e602083018461265b565b9392505050565b7f50726f706f73616c206e6f7420666f756e640000000000000000000000000000600082015250565b60006136cb6012836125d6565b91506136d682613695565b602082019050919050565b600060208201905081810360008301526136fa816136be565b9050919050565b7f566f74696e6720656e6465640000000000000000000000000000000000000000600082015250565b6000613737600c836125d6565b915061374282613701565b602082019050919050565b600060208201905081810360008301526137668161372a565b9050919050565b7f416c726561647920766f74656400000000000000000000000000000000000000600082015250565b60006137a3600d836125d6565b91506137ae8261376d565b602082019050919050565b600060208201905081810360008301526137d281613796565b9050919050565b7f4e6f742072656769737465726564000000000000000000000000000000000000600082015250565b600061380f600e836125d6565b915061381a826137d9565b602082019050919050565b6000602082019050818103600083015261383e81613802565b9050919050565b7f496e76616c6964206f7074696f6e000000000000000000000000000000000000600082015250565b600061387b600e836125d6565b915061388682613845565b602082019050919050565b600060208201905081810360008301526138aa8161386e565b9050919050565b60006040820190506138c6600083018561265b565b6138d3602083018461265b565b9392505050565b7f4e487b7100000000000000000000000000000000000000000000000000000000600052603260045260246000fd5b7f4e6f2071756f72756d2073657400000000000000000000000000000000000000600082015250565b600061393f600d836125d6565b915061394a82613909565b602082019050919050565b6000602082019050818103600083015261396e81613932565b9050919050565b600061398082612568565b915061398b83612568565b925082820261399981612568565b915082820484148315176139b0576139af61333c565b5b5092915050565b7f51756f72756d206e6f74206d6574000000000000000000000000000000000000600082015250565b60006139ed600e836125d6565b91506139f8826139b7565b602082019050919050565b60006020820190508181036000830152613a1c816139e0565b9050919050565b7f4e6f7420666f756e640000000000000000000000000000000000000000000000600082015250565b6000613a596009836125d6565b9150613a6482613a23565b602082019050919050565b60006020820190508181036000830152613a8881613a4c565b9050919050565b7f496e76616c69642071756f72756d2073697a6500000000000000000000000000600082015250565b6000613ac56013836125d6565b9150613ad082613a8f565b602082019050919050565b60006020820190508181036000830152613af481613ab8565b9050919050565b7f44656c6567617465206e6f742072656769737465726564000000000000000000600082015250565b6000613b316017836125d6565b9150613b3c82613afb565b602082019050919050565b60006020820190508181036000830152613b6081613b24565b9050919050565b7f43616e6e6f742073656c662d64656c6567617465000000000000000000000000600082015250565b6000613b9d6014836125d6565b9150613ba882613b67565b602082019050919050565b60006020820190508181036000830152613bcc81613b90565b9050919050565b7f4e6f74206f776e65720000000000000000000000000000000000000000000000600082015250565b6000613c096009836125d6565b9150613c1482613bd3565b602082019050919050565b60006020820190508181036000830152613c3881613bfc565b9050919050565b6000602082019050613c546000830184612f08565b9291505056fea264697066735822122051134cc6c8485586805f265266a7760fb07889b75b11c9b3ea4029841352724e64736f6c63430008180033",
  "linkReferences": {},
  "deployedLinkReferences": {}
}