{
  "_format": "hh-sol-artifact-1",
  "contractName": "NQGVoting",
  "sourceName": "contracts/NQGVoting.sol",
  "abi": [
    {
      "inputs": [
        {
          "internalType": "address",
          "name": "_relayer",
          "type": "address"
        }
      ],
      "stateMutability": "nonpayable",
      "type": "constructor"
    },
    {
      "anonymous": false,
      "inputs": [
        {
          "indexed": true,
          "internalType": "uint256",
          "name": "proposalId",
          "type": "uint256"
        },
        {
          "indexed": false,
          "internalType": "string",
          "name": "question",
          "type": "string"
        }
      ],
      "name": "ProposalCreated",
      "type": "event"
    },
    {
      "anonymous": false,
      "inputs": [
        {
          "indexed": true,
          "internalType": "uint256",
          "name": "proposalId",
          "type": "uint256"
        },
        {
          "indexed": false,
          "internalType": "uint256",
          "name": "endTime",
          "type": "uint256"
        }
      ],
      "name": "ProposalStarted",
      "type": "event"
    },
    {
      "anonymous": false,
      "inputs": [
        {
          "indexed": true,
          "internalType": "address",
          "name": "voter",
          "type": "address"
        },
        {
          "indexed": false,
          "internalType": "address[]",
          "name": "delegates",
          "type": "address[]"
        }
      ],
      "name": "QuorumDelegatesSet",
      "type": "event"
    },
    {
      "anonymous": false,
      "inputs": [
        {
          "indexed": true,
          "internalType": "uint256",
          "name": "proposalId",
          "type": "uint256"
        },
        {
          "indexed": true,
          "internalType": "address",
          "name": "voter",
          "type": "address"
        },
        {
          "indexed": false,
          "internalType": "uint256",
          "name": "optionIndex",
          "type": "uint256"
        },
        {
          "indexed": false,
          "internalType": "uint256",
          "name": "weight",
          "type": "uint256"
        }
      ],
      "name": "QuorumVoteResolved",
      "type": "event"
    },
    {
      "anonymous": false,
      "inputs": [
        {
          "indexed": true,
          "internalType": "address",
          "name": "voter",
          "type": "address"
        },
        {
          "indexed": false,
          "internalType": "enum NQGVoting.Tier",
          "name": "newTier",
          "type": "uint8"
        }
      ],
      "name": "TierUpdated",
      "type": "event"
    },
    {
      "anonymous": false,
      "inputs": [
        {
          "indexed": true,
          "internalType": "uint256",
          "name": "proposalId",
          "type": "uint256"
        },
        {
          "indexed": false,
          "internalType": "uint256",
          "name": "optionIndex",
          "type": "uint256"
        },
        {
          "indexed": false,
          "internalType": "uint256",
          "name": "weight",
          "type": "uint256"
        }
      ],
      "name": "VoteCast",
      "type": "event"
    },
    {
      "anonymous": false,
      "inputs": [
        {
          "indexed": true,
          "internalType": "address",
          "name": "voter",
          "type": "address"
        },
        {
          "indexed": false,
          "internalType": "enum NQGVoting.Tier",
          "name": "tier",
          "type": "uint8"
        }
      ],
      "name": "VoterApproved",
      "type": "event"
    },
    {
      "inputs": [],
      "name": "MAX_HISTORY_BONUS",
      "outputs": [
        {
          "internalType": "uint256",
          "name": "",
          "type": "uint256"
        }
      ],
      "stateMutability": "view",
      "type": "function"
    },
    {
      "inputs": [],
      "name": "MAX_QUORUM_SIZE",
      "outputs": [
        {
          "internalType": "uint256",
          "name": "",
          "type": "uint256"
        }
      ],
      "stateMutability": "view",
      "type": "function"
    },
    {
      "inputs": [],
      "name": "MIN_QUORUM_SIZE",
      "outputs": [
        {
          "internalType": "uint256",
          "name": "",
          "type": "uint256"
        }
      ],
      "stateMutability": "view",
      "type": "function"
    },
    {
      "inputs": [
        {
          "internalType": "address",
          "name": "_voter",
          "type": "address"
        },
        {
          "internalType": "enum NQGVoting.Tier",
          "name": "_tier",
          "type": "uint8"
        }
      ],
      "name": "approveVoter",
      "outputs": [],
      "stateMutability": "nonpayable",
      "type": "function"
    },
    {
      "inputs": [
        {
          "internalType": "uint256",
          "name": "",
          "type": "uint256"
        }
      ],
      "name": "approvedVoterList",
      "outputs": [
        {
          "internalType": "address",
          "name": "",
          "type": "address"
        }
      ],
      "stateMutability": "view",
      "type": "function"
    },
    {
      "inputs": [
        {
          "internalType": "address[]",
          "name": "_voters",
          "type": "address[]"
        },
        {
          "internalType": "enum NQGVoting.Tier[]",
          "name": "_tiers",
          "type": "uint8[]"
        }
      ],
      "name": "batchApproveVoters",
      "outputs": [],
      "stateMutability": "nonpayable",
      "type": "function"
    },
    {
      "inputs": [
        {
          "internalType": "string",
          "name": "_question",
          "type": "string"
        },
        {
          "internalType": "string[]",
          "name": "_options",
          "type": "string[]"
        },
        {
          "internalType": "uint256",
          "name": "_duration",
          "type": "uint256"
        }
      ],
      "name": "createProposal",
      "outputs": [
        {
          "internalType": "uint256",
          "name": "",
          "type": "uint256"
        }
      ],
      "stateMutability": "nonpayable",
      "type": "function"
    },
    {
      "inputs": [],
      "name": "getApprovedVoterCount",
      "outputs": [
        {
          "internalType": "uint256",
          "name": "",
          "type": "uint256"
        }
      ],
      "stateMutability": "view",
      "type": "function"
    },
    {
      "inputs": [],
      "name": "getApprovedVoters",
      "outputs": [
        {
          "internalType": "address[]",
          "name": "",
          "type": "address[]"
        }
      ],
      "stateMutability": "view",
      "type": "function"
    },
    {
      "inputs": [
        {
          "internalType": "uint256",
          "name": "_proposalId",
          "type": "uint256"
        }
      ],
      "name": "getProposalInfo",
      "outputs": [
        {
          "internalType": "string",
          "name": "question",
          "type": "string"
        },
        {
          "internalType": "uint256",
          "name": "endTime",
          "type": "uint256"
        },
        {
          "internalType": "uint256",
          "name": "optionCount",
          "type": "uint256"
        },
        {
          "internalType": "uint256",
          "name": "totalWeight",
          "type": "uint256"
        },
        {
          "internalType": "bool",
          "name": "active",
          "type": "bool"
        },
        {
          "internalType": "bool",
          "name": "started",
          "type": "bool"
        }
      ],
      "stateMutability": "view",
      "type": "function"
    },
    {
      "inputs": [
        {
          "internalType": "uint256",
          "name": "_proposalId",
          "type": "uint256"
        }
      ],
      "name": "getProposalOptions",
      "outputs": [
        {
          "internalType": "string[]",
          "name": "",
          "type": "string[]"
        }
      ],
      "stateMutability": "view",
      "type": "function"
    },
    {
      "inputs": [
        {
          "internalType": "address",
          "name": "_voter",
          "type": "address"
        }
      ],
      "name": "getQuorumDelegates",
      "outputs": [
        {
          "internalType": "address[]",
          "name": "",
          "type": "address[]"
        }
      ],
      "stateMutability": "view",
      "type": "function"
    },
    {
      "inputs": [
        {
          "internalType": "uint256",
          "name": "_proposalId",
          "type": "uint256"
        }
      ],
      "name": "getResults",
      "outputs": [
        {
          "internalType": "uint256[]",
          "name": "",
          "type": "uint256[]"
        }
      ],
      "stateMutability": "view",
      "type": "function"
    },
    {
      "inputs": [
        {
          "internalType": "address",
          "name": "_voter",
          "type": "address"
        }
      ],
      "name": "getVotePower",
      "outputs": [
        {
          "internalType": "uint256",
          "name": "",
          "type": "uint256"
        }
      ],
      "stateMutability": "view",
      "type": "function"
    },
    {
      "inputs": [
        {
          "internalType": "address",
          "name": "_voter",
          "type": "address"
        }
      ],
      "name": "getVoterInfo",
      "outputs": [
        {
          "internalType": "bool",
          "name": "registered",
          "type": "bool"
        },
        {
          "internalType": "bool",
          "name": "approved",
          "type": "bool"
        },
        {
          "internalType": "uint256",
          "name": "tier",
          "type": "uint256"
        },
        {
          "internalType": "uint256",
          "name": "votesParticipated",
          "type": "uint256"
        },
        {
          "internalType": "uint256",
          "name": "votePower",
          "type": "uint256"
        },
        {
          "internalType": "uint256",
          "name": "quorumSize",
          "type": "uint256"
        }
      ],
      "stateMutability": "view",
      "type": "function"
    },
    {
      "inputs": [],
      "name": "owner",
      "outputs": [
        {
          "internalType": "address",
          "name": "",
          "type": "address"
        }
      ],
      "stateMutability": "view",
      "type": "function"
    },
    {
      "inputs": [],
      "name": "proposalCount",
      "outputs": [
        {
          "internalType": "uint256",
          "name": "",
          "type": "uint256"
        }
      ],
      "stateMutability": "view",
      "type": "function"
    },
    {
      "inputs": [
        {
          "internalType": "uint256",
          "name": "",
          "type": "uint256"
        }
      ],
      "name": "proposals",
      "outputs": [
        {
          "internalType": "string",
          "name": "question",
          "type": "string"
        },
        {
          "internalType": "uint256",
          "name": "endTime",
          "type": "uint256"
        },
        {
          "internalType": "uint256",
          "name": "startTime",
          "type": "uint256"
        },
        {
          "internalType": "address",
          "name": "creator",
          "type": "address"
        },
        {
          "internalType": "bool",
          "name": "exists",
          "type": "bool"
        },
        {
          "internalType": "bool",
          "name": "started",
          "type": "bool"
        }
      ],
      "stateMutability": "view",
      "type": "function"
    },
    {
      "inputs": [
        {
          "internalType": "address",
          "name": "_voter",
          "type": "address"
        }
      ],
      "name": "registerVoter",
      "outputs": [],
      "stateMutability": "nonpayable",
      "type": "function"
    },
    {
      "inputs": [],
      "name": "relayer",
      "outputs": [
        {
          "internalType": "address",
          "name": "",
          "type": "address"
        }
      ],
      "stateMutability": "view",
      "type": "function"
    },
    {
      "inputs": [
        {
          "internalType": "uint256",
          "name": "_proposalId",
          "type": "uint256"
        },
        {
          "internalType": "address",
          "name": "_voter",
          "type": "address"
        }
      ],
      "name": "resolveQuorumVote",
      "outputs": [],
      "stateMutability": "nonpayable",
      "type": "function"
    },
    {
      "inputs": [
        {
          "internalType": "address",
          "name": "_voter",
          "type": "address"
        },
        {
          "internalType": "address[]",
          "name": "_delegates",
          "type": "address[]"
        }
      ],
      "name": "setQuorumDelegates",
      "outputs": [],
      "stateMutability": "nonpayable",
      "type": "function"
    },
    {
      "inputs": [
        {
          "internalType": "address",
          "name": "_voter",
          "type": "address"
        },
        {
          "internalType": "enum NQGVoting.Tier",
          "name": "_tier",
          "type": "uint8"
        }
      ],
      "name": "setVoterTier",
      "outputs": [],
      "stateMutability": "nonpayable",
      "type": "function"
    },
    {
      "inputs": [
        {
          "internalType": "uint256",
          "name": "_proposalId",
          "type": "uint256"
        }
      ],
      "name": "startVoting",
      "outputs": [],
      "stateMutability": "nonpayable",
      "type": "function"
    },
    {
      "inputs": [
        {
          "internalType": "uint256",
          "name": "",
          "type": "uint256"
        }
      ],
      "name": "tierScores",
      "outputs": [
        {
          "internalType": "uint256",
          "name": "",
          "type": "uint256"
        }
      ],
      "stateMutability": "view",
      "type": "function"
    },
    {
      "inputs": [
        {
          "internalType": "uint256",
          "name": "",
          "type": "uint256"
        }
      ],
      "name": "totalVoteWeight",
      "outputs": [
        {
          "internalType": "uint256",
          "name": "",
          "type": "uint256"
        }
      ],
      "stateMutability": "view",
      "type": "function"
    },
    {
      "inputs": [
        {
          "internalType": "uint256",
          "name": "_proposalId",
          "type": "uint256"
        },
        {
          "internalType": "address",
          "name": "_voter",
          "type": "address"
        },
        {
          "internalType": "uint256",
          "name": "_optionIndex",
          "type": "uint256"
        }
      ],
      "name": "vote",
      "outputs": [],
      "stateMutability": "nonpayable",
      "type": "function"
    },
    {
      "inputs": [
        {
          "internalType": "uint256",
          "name": "",
          "type": "uint256"
        },
        {
          "internalType": "address",
          "name": "",
          "type": "address"
        }
      ],
      "name": "voteRecords",
      "outputs": [
        {
          "internalType": "bool",
          "name": "hasVoted",
          "type": "bool"
        },
        {
          "internalType": "uint256",
          "name": "optionIndex",
          "type": "uint256"
        },
        {
          "internalType": "uint256",
          "name": "weight",
          "type": "uint256"
        }
      ],
      "stateMutability": "view",
      "type": "function"
    },
    {
      "inputs": [
        {
          "internalType": "uint256",
          "name": "",
          "type": "uint256"
        },
        {
          "internalType": "uint256",
          "name": "",
          "type": "uint256"
        }
      ],
      "name": "voteTallies",
      "outputs": [
        {
          "internalType": "uint256",
          "name": "",
          "type": "uint256"
        }
      ],
      "stateMutability": "view",
      "type": "function"
    },
    {
      "inputs": [
        {
          "internalType": "address",
          "name": "",
          "type": "address"
        }
      ],
      "name": "voters",
      "outputs": [
        {
          "internalType": "enum NQGVoting.Tier",
          "name": "tier",
          "type": "uint8"
        },
        {
          "internalType": "uint256",
          "name": "votesParticipated",
          "type": "uint256"
        },
        {
          "internalType": "bool",
          "name": "registered",
          "type": "bool"
        },
        {
          "internalType": "bool",
          "name": "approved",
          "type": "bool"
        }
      ],
      "stateMutability": "view",
      "type": "function"
    }
  ],
  "bytecode": "0x60806040526040518060800160405280600160ff168152602001600360ff168152602001600560ff168152602001600860ff1681525060039060046200004792919062000103565b503480156200005557600080fd5b5060405162004ded38038062004ded83398181016040528101906200007b9190620001d6565b336000806101000a81548173ffffffffffffffffffffffffffffffffffffffff021916908373ffffffffffffffffffffffffffffffffffffffff16021790555080600160006101000a81548173ffffffffffffffffffffffffffffffffffffffff021916908373ffffffffffffffffffffffffffffffffffffffff1602179055505062000208565b82600481019282156200013a579160200282015b8281111562000139578251829060ff1690559160200191906001019062000117565b5b5090506200014991906200014d565b5090565b5b80821115620001685760008160009055506001016200014e565b5090565b600080fd5b600073ffffffffffffffffffffffffffffffffffffffff82169050919050565b60006200019e8262000171565b9050919050565b620001b08162000191565b8114620001bc57600080fd5b50565b600081519050620001d081620001a5565b92915050565b600060208284031215620001ef57620001ee6200016c565b5b6000620001ff84828501620001bf565b91505092915050565b614bd580620002186000396000f3fe608060405234801561001057600080fd5b50600436106101da5760003560e01c806381a60c0d11610104578063b8cf0bc5116100a2578063d6745ec511610071578063d6745ec5146105ed578063d8e469dc14610609578063da35c66414610627578063dd52ed5a14610645576101da565b8063b8cf0bc51461053c578063bb9c092014610558578063bc903cb814610588578063c9b84e89146105bd576101da565b80638da5cb5b116100de5780638da5cb5b146104865780639ed1f255146104a4578063a1bd71b9146104d9578063a3ec138d14610509576101da565b806381a60c0d1461041c5780638406c0791461044c57806384b208001461046a576101da565b806338db6dd31161017c5780634de8737c1161014b5780634de8737c1461038057806355e180df1461039c578063656b4d44146103ce5780637af09f1a146103ec576101da565b806338db6dd3146102e85780633989ae34146103045780633d2f5bda146103345780634c8fd77f14610350576101da565b806321155e32116101b857806321155e321461026057806323376da61461027e578063292c269a1461029c5780632cd31c54146102b8576101da565b8063013cf08b146101df578063086a268f146102145780630b722d1a14610244575b600080fd5b6101f960048036038101906101f49190613162565b610663565b60405161020b9695949392919061328a565b60405180910390f35b61022e6004803603810190610229919061331e565b610761565b60405161023b9190613409565b60405180910390f35b61025e6004803603810190610259919061365b565b610831565b005b610268610c17565b60405161027591906136d3565b60405180910390f35b610286610c1c565b60405161029391906136d3565b60405180910390f35b6102b660048036038101906102b191906136ee565b610c29565b005b6102d260048036038101906102cd919061372e565b610f1c565b6040516102df91906136d3565b60405180910390f35b61030260048036038101906102fd919061331e565b610f41565b005b61031e60048036038101906103199190613904565b611145565b60405161032b91906136d3565b60405180910390f35b61034e60048036038101906103499190613162565b6113fe565b005b61036a60048036038101906103659190613162565b6115ca565b60405161037791906136d3565b60405180910390f35b61039a6004803603810190610395919061398f565b6115e5565b005b6103b660048036038101906103b191906139e2565b611b3a565b6040516103c593929190613a22565b60405180910390f35b6103d6611b7e565b6040516103e39190613409565b60405180910390f35b61040660048036038101906104019190613162565b611c0c565b6040516104139190613a59565b60405180910390f35b61043660048036038101906104319190613162565b611c4b565b6040516104439190613b32565b60405180910390f35b610454611d77565b6040516104619190613a59565b60405180910390f35b610484600480360381019061047f91906139e2565b611d9d565b005b61048e6124d6565b60405161049b9190613a59565b60405180910390f35b6104be60048036038101906104b9919061331e565b6124fa565b6040516104d096959493929190613b54565b60405180910390f35b6104f360048036038101906104ee9190613162565b6125ba565b6040516105009190613cc1565b60405180910390f35b610523600480360381019061051e919061331e565b61270c565b6040516105339493929190613d5a565b60405180910390f35b61055660048036038101906105519190613d9f565b612763565b005b610572600480360381019061056d919061331e565b612b1f565b60405161057f91906136d3565b60405180910390f35b6105a2600480360381019061059d9190613162565b612c32565b6040516105b496959493929190613dfb565b60405180910390f35b6105d760048036038101906105d29190613162565b612db3565b6040516105e491906136d3565b60405180910390f35b610607600480360381019061060291906136ee565b612dcb565b005b610611612fa4565b60405161061e91906136d3565b60405180910390f35b61062f612fa9565b60405161063c91906136d3565b60405180910390f35b61064d612faf565b60405161065a91906136d3565b60405180910390f35b600760205280600052604060002060009150905080600001805461068690613e92565b80601f01602080910402602001604051908101604052809291908181526020018280546106b290613e92565b80156106ff5780601f106106d4576101008083540402835291602001916106ff565b820191906000526020600020905b8154815290600101906020018083116106e257829003601f168201915b5050505050908060020154908060030154908060040160009054906101000a900473ffffffffffffffffffffffffffffffffffffffff16908060040160149054906101000a900460ff16908060040160159054906101000a900460ff16905086565b6060600a60008373ffffffffffffffffffffffffffffffffffffffff1673ffffffffffffffffffffffffffffffffffffffff16815260200190815260200160002060020180548060200260200160405190810160405280929190818152602001828054801561082557602002820191906000526020600020905b8160009054906101000a900473ffffffffffffffffffffffffffffffffffffffff1673ffffffffffffffffffffffffffffffffffffffff16815260200190600101908083116107db575b50505050509050919050565b60008054906101000a900473ffffffffffffffffffffffffffffffffffffffff1673ffffffffffffffffffffffffffffffffffffffff163373ffffffffffffffffffffffffffffffffffffffff16146108bf576040517f08c379a00000000000000000000000000000000000000000000000000000000081526004016108b690613f0f565b60405180910390fd5b8051825114610903576040517f08c379a00000000000000000000000000000000000000000000000000000000081526004016108fa90613f7b565b60405180910390fd5b60005b8251811015610c1257600a600084838151811061092657610925613f9b565b5b602002602001015173ffffffffffffffffffffffffffffffffffffffff1673ffffffffffffffffffffffffffffffffffffffff16815260200190815260200160002060030160019054906101000a900460ff16610c05576001600a600085848151811061099657610995613f9b565b5b602002602001015173ffffffffffffffffffffffffffffffffffffffff1673ffffffffffffffffffffffffffffffffffffffff16815260200190815260200160002060030160006101000a81548160ff0219169083151502179055506001600a6000858481518110610a0b57610a0a613f9b565b5b602002602001015173ffffffffffffffffffffffffffffffffffffffff1673ffffffffffffffffffffffffffffffffffffffff16815260200190815260200160002060030160016101000a81548160ff021916908315150217905550818181518110610a7a57610a79613f9b565b5b6020026020010151600a6000858481518110610a9957610a98613f9b565b5b602002602001015173ffffffffffffffffffffffffffffffffffffffff1673ffffffffffffffffffffffffffffffffffffffff16815260200190815260200160002060000160006101000a81548160ff02191690836003811115610b0057610aff613ce3565b5b0217905550600c838281518110610b1a57610b19613f9b565b5b60200260200101519080600181540180825580915050600190039060005260206000200160009091909190916101000a81548173ffffffffffffffffffffffffffffffffffffffff021916908373ffffffffffffffffffffffffffffffffffffffff160217905550828181518110610b9557610b94613f9b565b5b602002602001015173ffffffffffffffffffffffffffffffffffffffff167fc7f916e66d22b135be17ecafec027a27c73576d743ebc3f11ab59bc7745fa709838381518110610be757610be6613f9b565b5b6020026020010151604051610bfc9190613fca565b60405180910390a25b8080600101915050610906565b505050565b600581565b6000600c80549050905090565b60008054906101000a900473ffffffffffffffffffffffffffffffffffffffff1673ffffffffffffffffffffffffffffffffffffffff163373ffffffffffffffffffffffffffffffffffffffff1614610cb7576040517f08c379a0000000000000000000000000000000000000000000000000000000008152600401610cae90613f0f565b60405180910390fd5b600a60008373ffffffffffffffffffffffffffffffffffffffff1673ffffffffffffffffffffffffffffffffffffffff16815260200190815260200160002060030160019054906101000a900460ff1615610d47576040517f08c379a0000000000000000000000000000000000000000000000000000000008152600401610d3e90614031565b60405180910390fd5b6001600a60008473ffffffffffffffffffffffffffffffffffffffff1673ffffffffffffffffffffffffffffffffffffffff16815260200190815260200160002060030160006101000a81548160ff0219169083151502179055506001600a60008473ffffffffffffffffffffffffffffffffffffffff1673ffffffffffffffffffffffffffffffffffffffff16815260200190815260200160002060030160016101000a81548160ff02191690831515021790555080600a60008473ffffffffffffffffffffffffffffffffffffffff1673ffffffffffffffffffffffffffffffffffffffff16815260200190815260200160002060000160006101000a81548160ff02191690836003811115610e6257610e61613ce3565b5b0217905550600c829080600181540180825580915050600190039060005260206000200160009091909190916101000a81548173ffffffffffffffffffffffffffffffffffffffff021916908373ffffffffffffffffffffffffffffffffffffffff1602179055508173ffffffffffffffffffffffffffffffffffffffff167fc7f916e66d22b135be17ecafec027a27c73576d743ebc3f11ab59bc7745fa70982604051610f109190613fca565b60405180910390a25050565b6008602052816000526040600020602052806000526040600020600091509150505481565b600160009054906101000a900473ffffffffffffffffffffffffffffffffffffffff1673ffffffffffffffffffffffffffffffffffffffff163373ffffffffffffffffffffffffffffffffffffffff161480610fe8575060008054906101000a900473ffffffffffffffffffffffffffffffffffffffff1673ffffffffffffffffffffffffffffffffffffffff163373ffffffffffffffffffffffffffffffffffffffff16145b611027576040517f08c379a000000000000000000000000000000000000000000000000000000000815260040161101e9061409d565b60405180910390fd5b600a60008273ffffffffffffffffffffffffffffffffffffffff1673ffffffffffffffffffffffffffffffffffffffff16815260200190815260200160002060030160009054906101000a900460ff16611142576001600a60008373ffffffffffffffffffffffffffffffffffffffff1673ffffffffffffffffffffffffffffffffffffffff16815260200190815260200160002060030160006101000a81548160ff0219169083151502179055506000600a60008373ffffffffffffffffffffffffffffffffffffffff1673ffffffffffffffffffffffffffffffffffffffff16815260200190815260200160002060000160006101000a81548160ff0219169083600381111561113c5761113b613ce3565b5b02179055505b50565b6000600160009054906101000a900473ffffffffffffffffffffffffffffffffffffffff1673ffffffffffffffffffffffffffffffffffffffff163373ffffffffffffffffffffffffffffffffffffffff1614806111ee575060008054906101000a900473ffffffffffffffffffffffffffffffffffffffff1673ffffffffffffffffffffffffffffffffffffffff163373ffffffffffffffffffffffffffffffffffffffff16145b61122d576040517f08c379a00000000000000000000000000000000000000000000000000000000081526004016112249061409d565b60405180910390fd5b60028351101580156112415750600a835111155b611280576040517f08c379a000000000000000000000000000000000000000000000000000000000815260040161127790614109565b60405180910390fd5b600082116112c3576040517f08c379a00000000000000000000000000000000000000000000000000000000081526004016112ba90614175565b60405180910390fd5b6000600260008154809291906112d8906141c4565b91905055905060006007600083815260200190815260200160002090508581600001908161130691906143b8565b508481600101908051906020019061131f929190612fb4565b506000816002018190555060008160030181905550338160040160006101000a81548173ffffffffffffffffffffffffffffffffffffffff021916908373ffffffffffffffffffffffffffffffffffffffff16021790555060018160040160146101000a81548160ff02191690831515021790555060008160040160156101000a81548160ff021916908315150217905550838160020181905550817f9c770c289ab5bf7e57cb1d23c8ceae993aea46eb64847072fd3d78ca60d3e432876040516113ea919061448a565b60405180910390a281925050509392505050565b60008054906101000a900473ffffffffffffffffffffffffffffffffffffffff1673ffffffffffffffffffffffffffffffffffffffff163373ffffffffffffffffffffffffffffffffffffffff161461148c576040517f08c379a000000000000000000000000000000000000000000000000000000000815260040161148390613f0f565b60405180910390fd5b60006007600083815260200190815260200160002090508060040160149054906101000a900460ff166114f4576040517f08c379a00000000000000000000000000000000000000000000000000000000081526004016114eb906144f8565b60405180910390fd5b8060040160159054906101000a900460ff1615611546576040517f08c379a000000000000000000000000000000000000000000000000000000000815260040161153d90614564565b60405180910390fd5b60008160020154905042826003018190555080426115649190614584565b826002018190555060018260040160156101000a81548160ff021916908315150217905550827f2c59bd8dbd1c1a3f3250a5744b3c5eb1ea08a6d083a0457c601227b3c92c4a7183600201546040516115bd91906136d3565b60405180910390a2505050565b600381600481106115da57600080fd5b016000915090505481565b600160009054906101000a900473ffffffffffffffffffffffffffffffffffffffff1673ffffffffffffffffffffffffffffffffffffffff163373ffffffffffffffffffffffffffffffffffffffff16148061168c575060008054906101000a900473ffffffffffffffffffffffffffffffffffffffff1673ffffffffffffffffffffffffffffffffffffffff163373ffffffffffffffffffffffffffffffffffffffff16145b6116cb576040517f08c379a00000000000000000000000000000000000000000000000000000000081526004016116c29061409d565b60405180910390fd5b60006007600085815260200190815260200160002090508060040160149054906101000a900460ff16611733576040517f08c379a000000000000000000000000000000000000000000000000000000000815260040161172a906144f8565b60405180910390fd5b8060040160159054906101000a900460ff16611784576040517f08c379a000000000000000000000000000000000000000000000000000000000815260040161177b90614604565b60405180910390fd5b80600301544210156117cb576040517f08c379a00000000000000000000000000000000000000000000000000000000081526004016117c290614670565b60405180910390fd5b80600201544210611811576040517f08c379a0000000000000000000000000000000000000000000000000000000008152600401611808906146dc565b60405180910390fd5b6009600085815260200190815260200160002060008473ffffffffffffffffffffffffffffffffffffffff1673ffffffffffffffffffffffffffffffffffffffff16815260200190815260200160002060000160009054906101000a900460ff16156118b2576040517f08c379a00000000000000000000000000000000000000000000000000000000081526004016118a990614748565b60405180910390fd5b600a60008473ffffffffffffffffffffffffffffffffffffffff1673ffffffffffffffffffffffffffffffffffffffff16815260200190815260200160002060030160019054906101000a900460ff16611941576040517f08c379a0000000000000000000000000000000000000000000000000000000008152600401611938906147b4565b60405180910390fd5b8060010180549050821061198a576040517f08c379a000000000000000000000000000000000000000000000000000000000815260040161198190614820565b60405180910390fd5b600061199584612b1f565b90506040518060600160405280600115158152602001848152602001828152506009600087815260200190815260200160002060008673ffffffffffffffffffffffffffffffffffffffff1673ffffffffffffffffffffffffffffffffffffffff16815260200190815260200160002060008201518160000160006101000a81548160ff0219169083151502179055506020820151816001015560408201518160020155905050806008600087815260200190815260200160002060008581526020019081526020016000206000828254611a709190614584565b9250508190555080600b60008781526020019081526020016000206000828254611a9a9190614584565b92505081905550600a60008573ffffffffffffffffffffffffffffffffffffffff1673ffffffffffffffffffffffffffffffffffffffff1681526020019081526020016000206001016000815480929190611af4906141c4565b9190505550847f24930ecca7f60d4736cd965cb5522694ea4b32308405d3f88fea2f59eff63caa8483604051611b2b929190614840565b60405180910390a25050505050565b6009602052816000526040600020602052806000526040600020600091509150508060000160009054906101000a900460ff16908060010154908060020154905083565b6060600c805480602002602001604051908101604052809291908181526020018280548015611c0257602002820191906000526020600020905b8160009054906101000a900473ffffffffffffffffffffffffffffffffffffffff1673ffffffffffffffffffffffffffffffffffffffff1681526020019060010190808311611bb8575b5050505050905090565b600c8181548110611c1c57600080fd5b906000526020600020016000915054906101000a900473ffffffffffffffffffffffffffffffffffffffff1681565b606060006007600084815260200190815260200160002090508060040160149054906101000a900460ff16611cb5576040517f08c379a0000000000000000000000000000000000000000000000000000000008152600401611cac906144f8565b60405180910390fd5b6000816001018054905067ffffffffffffffff811115611cd857611cd7613430565b5b604051908082528060200260200182016040528015611d065781602001602082028036833780820191505090505b50905060005b8260010180549050811015611d6c5760086000868152602001908152602001600020600082815260200190815260200160002054828281518110611d5357611d52613f9b565b5b6020026020010181815250508080600101915050611d0c565b508092505050919050565b600160009054906101000a900473ffffffffffffffffffffffffffffffffffffffff1681565b600160009054906101000a900473ffffffffffffffffffffffffffffffffffffffff1673ffffffffffffffffffffffffffffffffffffffff163373ffffffffffffffffffffffffffffffffffffffff161480611e44575060008054906101000a900473ffffffffffffffffffffffffffffffffffffffff1673ffffffffffffffffffffffffffffffffffffffff163373ffffffffffffffffffffffffffffffffffffffff16145b611e83576040517f08c379a0000000000000000000000000000000000000000000000000000000008152600401611e7a9061409d565b60405180910390fd5b60006007600084815260200190815260200160002090508060040160149054906101000a900460ff16611eeb576040517f08c379a0000000000000000000000000000000000000000000000000000000008152600401611ee2906144f8565b60405180910390fd5b8060040160159054906101000a900460ff16611f3c576040517f08c379a0000000000000000000000000000000000000000000000000000000008152600401611f3390614604565b60405180910390fd5b6009600084815260200190815260200160002060008373ffffffffffffffffffffffffffffffffffffffff1673ffffffffffffffffffffffffffffffffffffffff16815260200190815260200160002060000160009054906101000a900460ff1615611fdd576040517f08c379a0000000000000000000000000000000000000000000000000000000008152600401611fd490614748565b60405180910390fd5b600a60008373ffffffffffffffffffffffffffffffffffffffff1673ffffffffffffffffffffffffffffffffffffffff16815260200190815260200160002060030160019054906101000a900460ff1661206c576040517f08c379a0000000000000000000000000000000000000000000000000000000008152600401612063906148b5565b60405180910390fd5b6000600a60008473ffffffffffffffffffffffffffffffffffffffff1673ffffffffffffffffffffffffffffffffffffffff16815260200190815260200160002060020190506003818054905010156120fa576040517f08c379a00000000000000000000000000000000000000000000000000000000081526004016120f190614921565b60405180910390fd5b60008260010180549050905060008167ffffffffffffffff81111561212257612121613430565b5b6040519080825280602002602001820160405280156121505781602001602082028036833780820191505090505b5090506000805b8480549050811015612258576000600960008a8152602001908152602001600020600087848154811061218d5761218c613f9b565b5b9060005260206000200160009054906101000a900473ffffffffffffffffffffffffffffffffffffffff1673ffffffffffffffffffffffffffffffffffffffff1673ffffffffffffffffffffffffffffffffffffffff16815260200190815260200160002090508060000160009054906101000a900460ff161561224a578381600101548151811061222257612221613f9b565b5b602002602001018051809190612237906141c4565b815250508280612246906141c4565b9350505b508080600101915050612157565b50838054905060028261226b9190614941565b116122ab576040517f08c379a00000000000000000000000000000000000000000000000000000000081526004016122a2906149cf565b60405180910390fd5b60008060005b8581101561230957818582815181106122cd576122cc613f9b565b5b602002602001015111156122fc578481815181106122ee576122ed613f9b565b5b602002602001015191508092505b80806001019150506122b1565b50600061231589612b1f565b9050604051806060016040528060011515815260200184815260200182815250600960008c815260200190815260200160002060008b73ffffffffffffffffffffffffffffffffffffffff1673ffffffffffffffffffffffffffffffffffffffff16815260200190815260200160002060008201518160000160006101000a81548160ff021916908315150217905550602082015181600101556040820151816002015590505080600860008c8152602001908152602001600020600085815260200190815260200160002060008282546123f09190614584565b9250508190555080600b60008c8152602001908152602001600020600082825461241a9190614584565b92505081905550600a60008a73ffffffffffffffffffffffffffffffffffffffff1673ffffffffffffffffffffffffffffffffffffffff1681526020019081526020016000206001016000815480929190612474906141c4565b91905055508873ffffffffffffffffffffffffffffffffffffffff168a7f2b9e76c951245aee9b9735e3c80271cbf249cfc8c4233a92e14497125cc5214a85846040516124c2929190614840565b60405180910390a350505050505050505050565b60008054906101000a900473ffffffffffffffffffffffffffffffffffffffff1681565b6000806000806000806000600a60008973ffffffffffffffffffffffffffffffffffffffff1673ffffffffffffffffffffffffffffffffffffffff16815260200190815260200160002090508060030160009054906101000a900460ff168160030160019054906101000a900460ff168260000160009054906101000a900460ff16600381111561258e5761258d613ce3565b5b836001015461259c8c612b1f565b85600201805490509650965096509650965096505091939550919395565b60606007600083815260200190815260200160002060040160149054906101000a900460ff1661261f576040517f08c379a000000000000000000000000000000000000000000000000000000000815260040161261690614a3b565b60405180910390fd5b60076000838152602001908152602001600020600101805480602002602001604051908101604052809291908181526020016000905b8282101561270157838290600052602060002001805461267490613e92565b80601f01602080910402602001604051908101604052809291908181526020018280546126a090613e92565b80156126ed5780601f106126c2576101008083540402835291602001916126ed565b820191906000526020600020905b8154815290600101906020018083116126d057829003601f168201915b505050505081526020019060010190612655565b505050509050919050565b600a6020528060005260406000206000915090508060000160009054906101000a900460ff16908060010154908060030160009054906101000a900460ff16908060030160019054906101000a900460ff16905084565b600160009054906101000a900473ffffffffffffffffffffffffffffffffffffffff1673ffffffffffffffffffffffffffffffffffffffff163373ffffffffffffffffffffffffffffffffffffffff16148061280a575060008054906101000a900473ffffffffffffffffffffffffffffffffffffffff1673ffffffffffffffffffffffffffffffffffffffff163373ffffffffffffffffffffffffffffffffffffffff16145b612849576040517f08c379a00000000000000000000000000000000000000000000000000000000081526004016128409061409d565b60405180910390fd5b600a60008373ffffffffffffffffffffffffffffffffffffffff1673ffffffffffffffffffffffffffffffffffffffff16815260200190815260200160002060030160019054906101000a900460ff166128d8576040517f08c379a00000000000000000000000000000000000000000000000000000000081526004016128cf906148b5565b60405180910390fd5b60038151101580156128ec57506005815111155b61292b576040517f08c379a000000000000000000000000000000000000000000000000000000000815260040161292290614aa7565b60405180910390fd5b60005b8151811015612a7557600a600083838151811061294e5761294d613f9b565b5b602002602001015173ffffffffffffffffffffffffffffffffffffffff1673ffffffffffffffffffffffffffffffffffffffff16815260200190815260200160002060030160019054906101000a900460ff166129e0576040517f08c379a00000000000000000000000000000000000000000000000000000000081526004016129d790614b13565b60405180910390fd5b8273ffffffffffffffffffffffffffffffffffffffff16828281518110612a0a57612a09613f9b565b5b602002602001015173ffffffffffffffffffffffffffffffffffffffff1603612a68576040517f08c379a0000000000000000000000000000000000000000000000000000000008152600401612a5f90614b7f565b60405180910390fd5b808060010191505061292e565b5080600a60008473ffffffffffffffffffffffffffffffffffffffff1673ffffffffffffffffffffffffffffffffffffffff1681526020019081526020016000206002019080519060200190612acc92919061300d565b508173ffffffffffffffffffffffffffffffffffffffff167f16c18372976f32dd2e562b1569482fbcce1084bbb084e986ad1645df4f629ad682604051612b139190613409565b60405180910390a25050565b6000600a60008373ffffffffffffffffffffffffffffffffffffffff1673ffffffffffffffffffffffffffffffffffffffff16815260200190815260200160002060030160019054906101000a900460ff16612b7e5760009050612c2d565b6000600a60008473ffffffffffffffffffffffffffffffffffffffff1673ffffffffffffffffffffffffffffffffffffffff1681526020019081526020016000209050600060038260000160009054906101000a900460ff166003811115612be957612be8613ce3565b5b60048110612bfa57612bf9613f9b565b5b0154905060006005836001015411612c16578260010154612c19565b60055b90508082612c279190614584565b93505050505b919050565b60606000806000806000806007600089815260200190815260200160002090508060040160149054906101000a900460ff16612ca3576040517f08c379a0000000000000000000000000000000000000000000000000000000008152600401612c9a90614a3b565b60405180910390fd5b60008160040160159054906101000a900460ff168015612cc7575081600301544210155b8015612cd65750816002015442105b90508160000182600201548360010180549050600b60008d815260200190815260200160002054848660040160159054906101000a900460ff16858054612d1c90613e92565b80601f0160208091040260200160405190810160405280929190818152602001828054612d4890613e92565b8015612d955780601f10612d6a57610100808354040283529160200191612d95565b820191906000526020600020905b815481529060010190602001808311612d7857829003601f168201915b50505050509550975097509750975097509750505091939550919395565b600b6020528060005260406000206000915090505481565b60008054906101000a900473ffffffffffffffffffffffffffffffffffffffff1673ffffffffffffffffffffffffffffffffffffffff163373ffffffffffffffffffffffffffffffffffffffff1614612e59576040517f08c379a0000000000000000000000000000000000000000000000000000000008152600401612e5090613f0f565b60405180910390fd5b600a60008373ffffffffffffffffffffffffffffffffffffffff1673ffffffffffffffffffffffffffffffffffffffff16815260200190815260200160002060030160019054906101000a900460ff16612ee8576040517f08c379a0000000000000000000000000000000000000000000000000000000008152600401612edf906148b5565b60405180910390fd5b80600a60008473ffffffffffffffffffffffffffffffffffffffff1673ffffffffffffffffffffffffffffffffffffffff16815260200190815260200160002060000160006101000a81548160ff02191690836003811115612f4d57612f4c613ce3565b5b02179055508173ffffffffffffffffffffffffffffffffffffffff167ff0880b9fd3445ca37e9b5cf896eb23e5292331792ae8b6e4c45bc527c713adad82604051612f989190613fca565b60405180910390a25050565b600581565b60025481565b600381565b828054828255906000526020600020908101928215612ffc579160200282015b82811115612ffb578251829081612feb91906143b8565b5091602001919060010190612fd4565b5b5090506130099190613097565b5090565b828054828255906000526020600020908101928215613086579160200282015b828111156130855782518260006101000a81548173ffffffffffffffffffffffffffffffffffffffff021916908373ffffffffffffffffffffffffffffffffffffffff1602179055509160200191906001019061302d565b5b50905061309391906130bb565b5090565b5b808211156130b757600081816130ae91906130d8565b50600101613098565b5090565b5b808211156130d45760008160009055506001016130bc565b5090565b5080546130e490613e92565b6000825580601f106130f65750613115565b601f01602090049060005260206000209081019061311491906130bb565b5b50565b6000604051905090565b600080fd5b600080fd5b6000819050919050565b61313f8161312c565b811461314a57600080fd5b50565b60008135905061315c81613136565b92915050565b60006020828403121561317857613177613122565b5b60006131868482850161314d565b91505092915050565b600081519050919050565b600082825260208201905092915050565b60005b838110156131c95780820151818401526020810190506131ae565b60008484015250505050565b6000601f19601f8301169050919050565b60006131f18261318f565b6131fb818561319a565b935061320b8185602086016131ab565b613214816131d5565b840191505092915050565b6132288161312c565b82525050565b600073ffffffffffffffffffffffffffffffffffffffff82169050919050565b60006132598261322e565b9050919050565b6132698161324e565b82525050565b60008115159050919050565b6132848161326f565b82525050565b600060c08201905081810360008301526132a481896131e6565b90506132b3602083018861321f565b6132c0604083018761321f565b6132cd6060830186613260565b6132da608083018561327b565b6132e760a083018461327b565b979650505050505050565b6132fb8161324e565b811461330657600080fd5b50565b600081359050613318816132f2565b92915050565b60006020828403121561333457613333613122565b5b600061334284828501613309565b91505092915050565b600081519050919050565b600082825260208201905092915050565b6000819050602082019050919050565b6133808161324e565b82525050565b60006133928383613377565b60208301905092915050565b6000602082019050919050565b60006133b68261334b565b6133c08185613356565b93506133cb83613367565b8060005b838110156133fc5781516133e38882613386565b97506133ee8361339e565b9250506001810190506133cf565b5085935050505092915050565b6000602082019050818103600083015261342381846133ab565b905092915050565b600080fd5b7f4e487b7100000000000000000000000000000000000000000000000000000000600052604160045260246000fd5b613468826131d5565b810181811067ffffffffffffffff8211171561348757613486613430565b5b80604052505050565b600061349a613118565b90506134a6828261345f565b919050565b600067ffffffffffffffff8211156134c6576134c5613430565b5b602082029050602081019050919050565b600080fd5b60006134ef6134ea846134ab565b613490565b90508083825260208201905060208402830185811115613512576135116134d7565b5b835b8181101561353b57806135278882613309565b845260208401935050602081019050613514565b5050509392505050565b600082601f83011261355a5761355961342b565b5b813561356a8482602086016134dc565b91505092915050565b600067ffffffffffffffff82111561358e5761358d613430565b5b602082029050602081019050919050565b600481106135ac57600080fd5b50565b6000813590506135be8161359f565b92915050565b60006135d76135d284613573565b613490565b905080838252602082019050602084028301858111156135fa576135f96134d7565b5b835b81811015613623578061360f88826135af565b8452602084019350506020810190506135fc565b5050509392505050565b600082601f8301126136425761364161342b565b5b81356136528482602086016135c4565b91505092915050565b6000806040838503121561367257613671613122565b5b600083013567ffffffffffffffff8111156136905761368f613127565b5b61369c85828601613545565b925050602083013567ffffffffffffffff8111156136bd576136bc613127565b5b6136c98582860161362d565b9150509250929050565b60006020820190506136e8600083018461321f565b92915050565b6000806040838503121561370557613704613122565b5b600061371385828601613309565b9250506020613724858286016135af565b9150509250929050565b6000806040838503121561374557613744613122565b5b60006137538582860161314d565b92505060206137648582860161314d565b9150509250929050565b600080fd5b600067ffffffffffffffff82111561378e5761378d613430565b5b613797826131d5565b9050602081019050919050565b82818337600083830152505050565b60006137c66137c184613773565b613490565b9050828152602081018484840111156137e2576137e161376e565b5b6137ed8482856137a4565b509392505050565b600082601f83011261380a5761380961342b565b5b813561381a8482602086016137b3565b91505092915050565b600067ffffffffffffffff82111561383e5761383d613430565b5b602082029050602081019050919050565b600061386261385d84613823565b613490565b90508083825260208201905060208402830185811115613885576138846134d7565b5b835b818110156138cc57803567ffffffffffffffff8111156138aa576138a961342b565b5b8086016138b789826137f5565b85526020850194505050602081019050613887565b5050509392505050565b600082601f8301126138eb576138ea61342b565b5b81356138fb84826020860161384f565b91505092915050565b60008060006060848603121561391d5761391c613122565b5b600084013567ffffffffffffffff81111561393b5761393a613127565b5b613947868287016137f5565b935050602084013567ffffffffffffffff81111561396857613967613127565b5b613974868287016138d6565b92505060406139858682870161314d565b9150509250925092565b6000806000606084860312156139a8576139a7613122565b5b60006139b68682870161314d565b93505060206139c786828701613309565b92505060406139d88682870161314d565b9150509250925092565b600080604083850312156139f9576139f8613122565b5b6000613a078582860161314d565b9250506020613a1885828601613309565b9150509250929050565b6000606082019050613a37600083018661327b565b613a44602083018561321f565b613a51604083018461321f565b949350505050565b6000602082019050613a6e6000830184613260565b92915050565b600081519050919050565b600082825260208201905092915050565b6000819050602082019050919050565b613aa98161312c565b82525050565b6000613abb8383613aa0565b60208301905092915050565b6000602082019050919050565b6000613adf82613a74565b613ae98185613a7f565b9350613af483613a90565b8060005b83811015613b25578151613b0c8882613aaf565b9750613b1783613ac7565b925050600181019050613af8565b5085935050505092915050565b60006020820190508181036000830152613b4c8184613ad4565b905092915050565b600060c082019050613b69600083018961327b565b613b76602083018861327b565b613b83604083018761321f565b613b90606083018661321f565b613b9d608083018561321f565b613baa60a083018461321f565b979650505050505050565b600081519050919050565b600082825260208201905092915050565b6000819050602082019050919050565b600082825260208201905092915050565b6000613bfd8261318f565b613c078185613be1565b9350613c178185602086016131ab565b613c20816131d5565b840191505092915050565b6000613c378383613bf2565b905092915050565b6000602082019050919050565b6000613c5782613bb5565b613c618185613bc0565b935083602082028501613c7385613bd1565b8060005b85811015613caf5784840389528151613c908582613c2b565b9450613c9b83613c3f565b925060208a01995050600181019050613c77565b50829750879550505050505092915050565b60006020820190508181036000830152613cdb8184613c4c565b905092915050565b7f4e487b7100000000000000000000000000000000000000000000000000000000600052602160045260246000fd5b60048110613d2357613d22613ce3565b5b50565b6000819050613d3482613d12565b919050565b6000613d4482613d26565b9050919050565b613d5481613d39565b82525050565b6000608082019050613d6f6000830187613d4b565b613d7c602083018661321f565b613d89604083018561327b565b613d96606083018461327b565b95945050505050565b60008060408385031215613db657613db5613122565b5b6000613dc485828601613309565b925050602083013567ffffffffffffffff811115613de557613de4613127565b5b613df185828601613545565b9150509250929050565b600060c0820190508181036000830152613e1581896131e6565b9050613e24602083018861321f565b613e31604083018761321f565b613e3e606083018661321f565b613e4b608083018561327b565b613e5860a083018461327b565b979650505050505050565b7f4e487b7100000000000000000000000000000000000000000000000000000000600052602260045260246000fd5b60006002820490506001821680613eaa57607f821691505b602082108103613ebd57613ebc613e63565b5b50919050565b7f4e6f74206f776e65720000000000000000000000000000000000000000000000600082015250565b6000613ef960098361319a565b9150613f0482613ec3565b602082019050919050565b60006020820190508181036000830152613f2881613eec565b9050919050565b7f4c656e677468206d69736d617463680000000000000000000000000000000000600082015250565b6000613f65600f8361319a565b9150613f7082613f2f565b602082019050919050565b60006020820190508181036000830152613f9481613f58565b9050919050565b7f4e487b7100000000000000000000000000000000000000000000000000000000600052603260045260246000fd5b6000602082019050613fdf6000830184613d4b565b92915050565b7f416c726561647920617070726f76656400000000000000000000000000000000600082015250565b600061401b60108361319a565b915061402682613fe5565b602082019050919050565b6000602082019050818103600083015261404a8161400e565b9050919050565b7f4e6f742072656c61796572000000000000000000000000000000000000000000600082015250565b6000614087600b8361319a565b915061409282614051565b602082019050919050565b600060208201905081810360008301526140b68161407a565b9050919050565b7f322d3130206f7074696f6e730000000000000000000000000000000000000000600082015250565b60006140f3600c8361319a565b91506140fe826140bd565b602082019050919050565b60006020820190508181036000830152614122816140e6565b9050919050565b7f4475726174696f6e206d757374206265203e2030000000000000000000000000600082015250565b600061415f60148361319a565b915061416a82614129565b602082019050919050565b6000602082019050818103600083015261418e81614152565b9050919050565b7f4e487b7100000000000000000000000000000000000000000000000000000000600052601160045260246000fd5b60006141cf8261312c565b91507fffffffffffffffffffffffffffffffffffffffffffffffffffffffffffffffff820361420157614200614195565b5b600182019050919050565b60008190508160005260206000209050919050565b60006020601f8301049050919050565b600082821b905092915050565b60006008830261426e7fffffffffffffffffffffffffffffffffffffffffffffffffffffffffffffffff82614231565b6142788683614231565b95508019841693508086168417925050509392505050565b6000819050919050565b60006142b56142b06142ab8461312c565b614290565b61312c565b9050919050565b6000819050919050565b6142cf8361429a565b6142e36142db826142bc565b84845461423e565b825550505050565b600090565b6142f86142eb565b6143038184846142c6565b505050565b5b818110156143275761431c6000826142f0565b600181019050614309565b5050565b601f82111561436c5761433d8161420c565b61434684614221565b81016020851015614355578190505b61436961436185614221565b830182614308565b50505b505050565b600082821c905092915050565b600061438f60001984600802614371565b1980831691505092915050565b60006143a8838361437e565b9150826002028217905092915050565b6143c18261318f565b67ffffffffffffffff8111156143da576143d9613430565b5b6143e48254613e92565b6143ef82828561432b565b600060209050601f8311600181146144225760008415614410578287015190505b61441a858261439c565b865550614482565b601f1984166144308661420c565b60005b8281101561445857848901518255600182019150602085019450602081019050614433565b868310156144755784890151614471601f89168261437e565b8355505b6001600288020188555050505b505050505050565b600060208201905081810360008301526144a481846131e6565b905092915050565b7f50726f706f73616c206e6f7420666f756e640000000000000000000000000000600082015250565b60006144e260128361319a565b91506144ed826144ac565b602082019050919050565b60006020820190508181036000830152614511816144d5565b9050919050565b7f416c726561647920737461727465640000000000000000000000000000000000600082015250565b600061454e600f8361319a565b915061455982614518565b602082019050919050565b6000602082019050818103600083015261457d81614541565b9050919050565b600061458f8261312c565b915061459a8361312c565b92508282019050808211156145b2576145b1614195565b5b92915050565b7f566f74696e67206e6f7420737461727465640000000000000000000000000000600082015250565b60006145ee60128361319a565b91506145f9826145b8565b602082019050919050565b6000602082019050818103600083015261461d816145e1565b9050919050565b7f566f74696e67206e6f7420737461727465642079657400000000000000000000600082015250565b600061465a60168361319a565b915061466582614624565b602082019050919050565b600060208201905081810360008301526146898161464d565b9050919050565b7f566f74696e6720656e6465640000000000000000000000000000000000000000600082015250565b60006146c6600c8361319a565b91506146d182614690565b602082019050919050565b600060208201905081810360008301526146f5816146b9565b9050919050565b7f416c726561647920766f74656400000000000000000000000000000000000000600082015250565b6000614732600d8361319a565b915061473d826146fc565b602082019050919050565b6000602082019050818103600083015261476181614725565b9050919050565b7f4e6f7420617070726f76656420746f20766f7465000000000000000000000000600082015250565b600061479e60148361319a565b91506147a982614768565b602082019050919050565b600060208201905081810360008301526147cd81614791565b9050919050565b7f496e76616c6964206f7074696f6e000000000000000000000000000000000000600082015250565b600061480a600e8361319a565b9150614815826147d4565b602082019050919050565b60006020820190508181036000830152614839816147fd565b9050919050565b6000604082019050614855600083018561321f565b614862602083018461321f565b9392505050565b7f4e6f7420617070726f7665640000000000000000000000000000000000000000600082015250565b600061489f600c8361319a565b91506148aa82614869565b602082019050919050565b600060208201905081810360008301526148ce81614892565b9050919050565b7f4e6f2071756f72756d2073657400000000000000000000000000000000000000600082015250565b600061490b600d8361319a565b9150614916826148d5565b602082019050919050565b6000602082019050818103600083015261493a816148fe565b9050919050565b600061494c8261312c565b91506149578361312c565b92508282026149658161312c565b9150828204841483151761497c5761497b614195565b5b5092915050565b7f51756f72756d206e6f74206d6574000000000000000000000000000000000000600082015250565b60006149b9600e8361319a565b91506149c482614983565b602082019050919050565b600060208201905081810360008301526149e8816149ac565b9050919050565b7f4e6f7420666f756e640000000000000000000000000000000000000000000000600082015250565b6000614a2560098361319a565b9150614a30826149ef565b602082019050919050565b60006020820190508181036000830152614a5481614a18565b9050919050565b7f496e76616c69642071756f72756d2073697a6500000000000000000000000000600082015250565b6000614a9160138361319a565b9150614a9c82614a5b565b602082019050919050565b60006020820190508181036000830152614ac081614a84565b9050919050565b7f44656c6567617465206e6f7420617070726f7665640000000000000000000000600082015250565b6000614afd60158361319a565b9150614b0882614ac7565b602082019050919050565b60006020820190508181036000830152614b2c81614af0565b9050919050565b7f43616e6e6f742073656c662d64656c6567617465000000000000000000000000600082015250565b6000614b6960148361319a565b9150614b7482614b33565b602082019050919050565b60006020820190508181036000830152614b9881614b5c565b905091905056fea2646970667358221220c889fcafb9b62a33e6b04df2f6f51b391967bfb90b6451bb35b7a5f695a4880864736f6c63430008180033",
  "linkReferences": {},
  "deployedLinkReferences": {}
}